:100000000C9435000C945D000C945D000C945D0024
:100010000C945D000C945D000C945D000C945D00EC
:100020000C945D000C945D000C945D000C945D00DC
:100030000C945D000C945D000C945D000C945D00CC
:100040000C94E9010C945D000C9459020C94330259
:100050000C945D000C948B020C945D000C945D007C
:100060000C945D000C945D008C0411241FBECFEF36
:10007000D8E0DEBFCDBF11E0A0E0B1E0E8E4FEE0F3
:1000800002C005900D92AC33B107D9F721E0ACE383
:10009000B1E001C01D92AB3EB207E1F710E0C5E34D
:1000A000D0E004C02197FE010E941707C433D10796
:1000B000C9F70E94FC030C9422070C9400003FB780
:1000C000F89480914A0190914B01A0914C01B0911C
:1000D0004D0126B5A89B05C02F3F19F00196A11D23
:1000E000B11D3FBFBA2FA92F982F8827820F911DCE
:1000F000A11DB11DBC01CD0142E0660F771F881F15
:10010000991F4A95D1F70895CF92DF92EF92FF920F
:100110000F931F93CF93DF936C017A018B01C0E0A3
:10012000D0E0CE15DF0581F0D8016D918D01D601AB
:10013000ED91FC910190F081E02DC6010995892B8C
:1001400011F02196EECF7E01C701DF91CF911F9173
:100150000F91FF90EF90DF90CF900895089580E089
:1001600090E00895FC01538D448D252F30E0842FBD
:1001700090E0821B930B541710F0CF9608950197CF
:100180000895FC01918D828D981761F0828DDF01B9
:10019000A80FB11D5D968C91928D9F5F9F73928F7A
:1001A00090E008958FEF9FEF0895FC01918D828D6F
:1001B000981731F0828DE80FF11D858D90E008953C
:1001C0008FEF9FEF0895FC01918D228D892F90E094
:1001D000805C9F4F821B91098F73992708958EE44D
:1001E00091E00E94E30021E0892B09F420E0822FB6
:1001F0000895FC01848DDF01A80FB11DA35ABF4FE4
:100200002C91848D90E001968F739927848FA68915
:10021000B7892C93A089B1898C91837080648C9369
:10022000938D848D981306C00288F389E02D808118
:100230008F7D80830895EF92FF920F931F93CF934A
:10024000DF93EC0181E0888F9B8D8C8D981305C026
:10025000E889F989808185FD26C0F62E0B8D10E096
:100260000F5F1F4F0F731127E02E8C8DE8120CC00B
:100270000FB607FCFACFE889F989808185FFF5CFB1
:10028000CE010E94F900F1CF8B8DFE01E80FF11D28
:10029000E35AFF4FF0829FB7F8940B8FEA89FB89EE
:1002A000808180620AC09FB7F894EE89FF896083DD
:1002B000E889F98980818370806480839FBF81E0B1
:1002C00090E0DF91CF911F910F91FF90EF900895F3
:1002D000CF93DF93EC01888D8823C9F0EA89FB89ED
:1002E000808185FD05C0A889B9898C9186FD0FC0E4
:1002F0000FB607FCF5CF808185FFF2CFA889B989B9
:100300008C9185FFEDCFCE010E94F900E7CFDF9100
:10031000CF91089580E090E0892B29F00E94EF00B2
:1003200081110C9400000895009769F0FC01019080
:100330000020E9F73197AF01481B590BBC018EE44F
:1003400091E00C94840080E090E008958F929F9259
:10035000AF92BF920F931F93CF93DF93CDB7DEB7CA
:10036000A1970FB6F894DEBF0FBECDBF19A24230E1
:1003700008F44AE08E010F5D1F4F842E912CA12CB2
:10038000B12CA50194010E94F506E62FB901CA011E
:1003900001501109EA3014F4E05D01C0E95CD801B4
:1003A000EC93232B242B252B61F7C8010E94940189
:1003B000A1960FB6F894DEBF0FBECDBFDF91CF91EF
:1003C0001F910F91BF90AF909F908F9008950E94C2
:1003D0001D071F920F920FB60F9211242F933F9378
:1003E0008F939F93AF93BF93809146019091470164
:1003F000A0914801B09149013091450123E0230FBC
:100400002D3720F40196A11DB11D05C026E8230F4C
:100410000296A11DB11D2093450180934601909342
:100420004701A0934801B093490180914A019091FE
:100430004B01A0914C01B0914D010196A11DB11D40
:1004400080934A0190934B01A0934C01B0934D01CE
:10045000BF91AF919F918F913F912F910F900FBEC0
:100460000F901F9018951F920F920FB60F921124A4
:100470002F933F934F935F936F937F938F939F93AC
:10048000AF93BF93EF93FF938EE491E00E94F90046
:10049000FF91EF91BF91AF919F918F917F916F915C
:1004A0005F914F913F912F910F900FBE0F901F9032
:1004B00018951F920F920FB60F9211242F938F93BE
:1004C0009F93EF93FF93E0915E01F0915F01808134
:1004D000E0916401F091650182FD12C090818091EC
:1004E00067018F5F8F7320916801821751F0E0914F
:1004F0006701F0E0E25BFE4F958F8093670101C0DA
:100500008081FF91EF919F918F912F910F900FBE5E
:100510000F901F9018951F920F920FB60F921124F3
:100520004F925F926F927F928F929F92AF92BF9203
:10053000CF92DF92EF92FF922F933F934F935F936F
:100540006F937F938F939F93AF93BF93EF93FF939B
:100550008091790090E090934401809343018091D1
:100560004101909142010196909342018093410193
:10057000883E93400CF41EC1C0904301D0904401CA
:100580000D2C000CEE08FF08F7FE0EC06DE28EE4A5
:1005900091E00E941B0166277727CB016C197D092A
:1005A0008E099F094AE003C04AE0C701B6010E94D4
:1005B000A60182E191E00E9494010E945F002091D7
:1005C0003F0130914001621B730B70933E016093B9
:1005D0003D0185E191E00E94940160913D0170919F
:1005E0003E01072E000C880B990B0E94CE059B0143
:1005F000AC0160E074E284E799E40E942B056B0192
:100600007C014B015C019B01AC010E94F006882338
:1006100019F08AE291E01AC026013701E89477F8D0
:100620002FEF3FEF4FE75FE7C301B2010E94F006F3
:1006300081110FC02FEF3FEF4FE75FE7C301B2011A
:100640000E94260518162CF48EE291E00E94940177
:1006500078C02FEF3FEF4FE75FE4C701B6010E947C
:100660007E0618161CF482E391E0F0CF2FEF3FEFE7
:100670004FE75FECC701B6010E94260587FDF3CF67
:1006800020E030E0A901C701B6010E94260587FFDE
:100690000BC06DE28EE491E00E941B014601570100
:1006A000B7FAB094B7F8B0942AE037ED43EA5BE3C9
:1006B000C501B4010E94BA044B015C010E949D0572
:1006C0006B017C010E94CC059B01AC01C501B4010A
:1006D0000E94B9044B015C014AE0C701B6010E94C7
:1006E000A6016EE28EE491E00E941B0120E030E062
:1006F00040E251E4C501B4010E9483064B015C0154
:100700000E949D056B01E12CF12C4AE0C701B60166
:100710000E94A601C701B6010E94CC059B01AC0155
:10072000C501B4010E94B90420E030E040E251E488
:100730000E9483060E949D0580E090E04AE00E94AE
:10074000A60186E391E00E94940182E191E00E947B
:1007500094010E945F004B015C0184EFC82EDD24F0
:10076000D394E12CF12C0E945F00DC01CB018819AD
:100770009909AA09BB09883E9340A105B10598F3E0
:1007800081E0C81AD108E108F10828EE820E23E0C2
:10079000921EA11CB11CC114D104E104F10419F78B
:1007A00010924201109241010E945F00709340013B
:1007B00060933F0180917A00886480937A00FF9172
:1007C000EF91BF91AF919F918F917F916F915F91C9
:1007D0004F913F912F91FF90EF90DF90CF90BF907E
:1007E000AF909F908F907F906F905F904F900F9001
:1007F0000FBE0F901F901895789484B5826084BDC9
:1008000084B5816084BD85B5826085BD85B5816014
:1008100085BD80916E00816080936E001092810092
:10082000809181008260809381008091810081604D
:10083000809381008091800081608093800080910E
:10084000B10084608093B1008091B000816080939A
:10085000B00080917A00846080937A0080917A0061
:10086000826080937A0080917A00816080937A0020
:1008700080917A00806880937A001092C100E091A4
:100880005E01F0915F0182E08083E0915A01F09176
:100890005B011082E0915C01F0915D018FEC80833F
:1008A00010926601E0916201F091630186E080831D
:1008B000E0916001F0916101808180618083E0912D
:1008C0006001F0916101808188608083E091600126
:1008D000F0916101808180688083E0916001F091F6
:1008E000610180818F7D808380E880937A00809190
:1008F0007A00836080937A0080E680937C00809108
:100900007A00806280937A0080917A008864809374
:100910007A000E948A01FDCFEEE4F1E01382128298
:1009200088EE93E0A0E0B0E084839583A683B7834C
:1009300084E091E09183808385EC90E095878487C3
:1009400084EC90E09787868780EC90E0918B808B99
:1009500081EC90E0938B828B82EC90E0958B848B82
:1009600086EC90E0978B868B118E128E138E148EF0
:1009700008955058BB27AA270E94D1040C9444061E
:100980000E94360638F00E943D0620F039F49F3F61
:1009900019F426F40C9433060EF4E095E7FB0C945E
:1009A0002D06E92F0E94550658F3BA176207730700
:1009B0008407950720F079F4A6F50C9477060EF4D9
:1009C000E0950B2EBA2FA02D0B01B90190010C015F
:1009D000CA01A0011124FF27591B99F0593F50F477
:1009E000503E68F11A16F040A22F232F342F4427CF
:1009F000585FF3CF469537952795A795F0405395C7
:100A0000C9F77EF41F16BA0B620B730B840BBAF096
:100A10009150A1F0FF0FBB1F661F771F881FC2F701
:100A20000EC0BA0F621F731F841F48F48795779515
:100A30006795B795F7959E3F08F0B0CF9395880FCF
:100A400008F09927EE0F9795879508950E9409065B
:100A500008F481E008950E943F050C9444060E942A
:100A60003D0658F00E94360640F029F45F3F29F019
:100A70000C942D0651110C9478060C9433060E94A8
:100A8000550668F39923B1F3552391F3951B550B44
:100A9000BB27AA2762177307840738F09F5F5F4F51
:100AA000220F331F441FAA1FA9F335D00E2E3AF090
:100AB000E0E832D091505040E695001CCAF72BD0A8
:100AC000FE2F29D0660F771F881FBB1F26173707F9
:100AD0004807AB07B0E809F0BB0B802DBF01FF272B
:100AE00093585F4F3AF09E3F510578F00C942D06D5
:100AF0000C9478065F3FE4F3983ED4F3869577959F
:100B00006795B795F7959F5FC9F7880F911D9695E3
:100B1000879597F90895E1E0660F771F881FBB1F3F
:100B2000621773078407BA0720F0621B730B840BEC
:100B3000BA0BEE1F88F7E09508950E945D0688F0D5
:100B40009F5798F0B92F9927B751B0F0E1F0660F91
:100B5000771F881F991F1AF0BA95C9F714C0B130D2
:100B600091F00E947706B1E008950C947706672F04
:100B7000782F8827B85F39F0B93FCCF38695779501
:100B80006795B395D9F73EF49095809570956195EA
:100B90007F4F8F4F9F4F0895E89409C097FB3EF415
:100BA00090958095709561957F4F8F4F9F4F9923BA
:100BB000A9F0F92F96E9BB279395F6958795779538
:100BC0006795B795F111F8CFFAF4BB0F11F460FFF8
:100BD0001BC06F5F7F4F8F4F9F4F16C0882311F050
:100BE00096E911C0772321F09EE8872F762F05C064
:100BF000662371F096E8862F70E060E02AF09A95FF
:100C0000660F771F881FDAF7880F9695879597F9F3
:100C10000895990F0008550FAA0BE0E8FEEF16168D
:100C20001706E807F907C0F012161306E407F507E0
:100C300098F0621B730B840B950B39F40A2661F054
:100C4000232B242B252B21F408950A2609F4A140F7
:100C5000A6958FEF811D811D089597F99F6780E804
:100C600070E060E008959FEF80EC089500240A94FE
:100C70001616170618060906089500240A94121677
:100C80001306140605060895092E0394000C11F4AA
:100C9000882352F0BB0F40F4BF2B11F460FF04C057
:100CA0006F5F7F4F8F4F9F4F089557FD9058440FB0
:100CB000551F59F05F3F71F04795880F97FB991FBB
:100CC00061F09F3F79F08795089512161306140678
:100CD000551FF2CF4695F1DF08C016161706180605
:100CE000991FF1CF86957105610508940895E894E0
:100CF000BB2766277727CB0197F908950E9409063D
:100D000008F48FEF08950E9496060C9444060E9402
:100D1000360638F00E943D0620F0952311F00C9421
:100D20002D060C94330611240C9478060E94550667
:100D300070F3959FC1F3950F50E0551F629FF0012E
:100D4000729FBB27F00DB11D639FAA27F00DB11D47
:100D5000AA1F649F6627B00DA11D661F829F2227D0
:100D6000B00DA11D621F739FB00DA11D621F839F57
:100D7000A00D611D221F749F3327A00D611D231F2D
:100D8000849F600D211D822F762F6A2F11249F577B
:100D900050409AF0F1F088234AF0EE0FFF1FBB1F7E
:100DA000661F771F881F91505040A9F79E3F51053D
:100DB00080F00C942D060C9478065F3FE4F3983E87
:100DC000D4F3869577956795B795F795E7959F5FE7
:100DD000C1F7FE2B880F911D9695879597F9089579
:100DE0000E940906880B990B0895A1E21A2EAA1BEE
:100DF000BB1BFD010DC0AA1FBB1FEE1FFF1FA217CB
:100E0000B307E407F50720F0A21BB30BE40BF50BC7
:100E1000661F771F881F991F1A9469F76095709550
:100E2000809590959B01AC01BD01CF010895EE0F17
:100E3000FF1F0590F491E02D099481E090E0F89473
:080E40000C942207F894FFCF87
:100E4800000000001B018400B2006801E300C1003B
:100E5800D5000D0A0053616D706C696E672066726B
:100E6800657175656E63793A20006E616E00696E12
:0C0E780066006F766600204B487A000090
:107E0000112484B714BE81FFF0D085E080938100F7
:107E100082E08093C00088E18093C10086E0809377
:107E2000C20080E18093C4008EE0C9D0259A86E02C
:107E300020E33CEF91E0309385002093840096BBD3
:107E4000B09BFECF1D9AA8958150A9F7CC24DD24C4
:107E500088248394B5E0AB2EA1E19A2EF3E0BF2EE7
:107E6000A2D0813461F49FD0082FAFD0023811F036
:107E7000013811F484E001C083E08DD089C08234E0
:107E800011F484E103C0853419F485E0A6D080C0E4
:107E9000853579F488D0E82EFF2485D0082F10E0AE
:107EA000102F00270E291F29000F111F8ED06801E7
:107EB0006FC0863521F484E090D080E0DECF843638
:107EC00009F040C070D06FD0082F6DD080E0C81688
:107ED00080E7D80618F4F601B7BEE895C0E0D1E017
:107EE00062D089930C17E1F7F0E0CF16F0E7DF06D8
:107EF00018F0F601B7BEE89568D007B600FCFDCFD4
:107F0000A601A0E0B1E02C9130E011968C91119780
:107F100090E0982F8827822B932B1296FA010C0160
:107F200087BEE89511244E5F5F4FF1E0A038BF0790
:107F300051F7F601A7BEE89507B600FCFDCF97BE46
:107F4000E89526C08437B1F42ED02DD0F82E2BD052
:107F50003CD0F601EF2C8F010F5F1F4F84911BD097
:107F6000EA94F801C1F70894C11CD11CFA94CF0C13
:107F7000D11C0EC0853739F428D08EE10CD085E9AC
:107F80000AD08FE07ACF813511F488E018D01DD067
:107F900080E101D065CF982F8091C00085FFFCCF94
:107FA0009093C60008958091C00087FFFCCF809118
:107FB000C00084FD01C0A8958091C6000895E0E648
:107FC000F0E098E1908380830895EDDF803219F02E
:107FD00088E0F5DFFFCF84E1DECF1F93182FE3DFCA
:107FE0001150E9F7F2DF1F91089580E0E8DFEE27F6
:047FF000FF270994CA
:027FFE00040479
:0400000300007E007B
:00000001FF
