:100000000C945D000C9485000C9485000C94850084
:100010000C9485000C9485000C9485000C9485004C
:100020000C9485000C9485000C9485000C9485003C
:100030000C9485000C9485000C9485000C9485002C
:100040000C9460020C9485000C94D0020C94AA02CB
:100050000C9485000C9485000C9485000C9485000C
:100060000C9485000C94850000000008000201003B
:100070000003040700000000000000000000000072
:10008000250028002B0000000000240027002A0083
:10009000040404040404040402020202020203032E
:1000A0000303030301020408102040800102040836
:1000B0001020010204081020FB0411241FBECFEF02
:1000C000D8E0DEBFCDBF11E0A0E0B1E0E6E2FFE0A6
:1000D00002C005900D92A233B107D9F721E0A2E347
:1000E000B1E001C01D92A93DB207E1F710E0CDE5F6
:1000F000D0E004C02197FE010E948607CC35D107CD
:10010000C9F70E9402030C9491070C9400008FEF32
:100110008EBD00000DB407FEFDCF8EB5089590E0B2
:10012000FC01EC55FF4F2491FC01E057FF4F8491F7
:10013000882399F090E0880F991FFC01EA57FF4F40
:10014000A591B491FC01E458FF4F859194918FB72C
:10015000F894EC91E22BEC938FBF089590E0FC01B2
:10016000E859FF4F2491FC01EC55FF4F3491FC01FD
:10017000E057FF4FE491EE2309F43CC0222339F10C
:10018000233091F038F42130A9F0223001F584B504
:100190008F7D12C0273091F02830A1F02430B9F4BF
:1001A000809180008F7D03C0809180008F77809345
:1001B00080000DC084B58F7784BD09C08091B000E8
:1001C0008F7703C08091B0008F7D8093B000F0E006
:1001D000EE0FFF1FE458FF4FA591B4919FB7F8941D
:1001E000611104C08C913095382302C0EC913E2BF4
:1001F0003C939FBF0895CF92DF92EF92FF920F93AF
:100200001F93CF93DF936C017A018B01C0E0D0E0A4
:10021000CE15DF0581F0D8016D918D01D601ED91EC
:10022000FC910190F081E02DC6010995892B11F018
:100230002196EECF7E01C701DF91CF911F910F91E3
:10024000FF90EF90DF90CF900895089580E090E0C8
:100250000895FC01538D448D252F30E0842F90E0CC
:10026000821B930B541710F0CF96089501970895B1
:10027000FC01918D828D981761F0828DDF01A80FAE
:10028000B11D5D968C91928D9F5F9F73928F90E0D0
:1002900008958FEF9FEF0895FC01918D828D98173F
:1002A00031F0828DE80FF11D858D90E008958FEF7C
:1002B0009FEF0895FC01918D228D892F90E0805C45
:1002C0009F4F821B91098F73992708958CE391E0CA
:1002D0000E945A0121E0892B09F420E0822F089521
:1002E000FC01848DDF01A80FB11DA35ABF4F2C91D3
:1002F000848D90E001968F739927848FA689B789A2
:100300002C93A089B1898C91837080648C93938D98
:10031000848D981306C00288F389E02D80818F7D3B
:1003200080830895EF92FF920F931F93CF93DF93F3
:10033000EC0181E0888F9B8D8C8D981305C0E88936
:10034000F989808185FD26C0F62E0B8D10E00F5FA8
:100350001F4F0F731127E02E8C8DE8120CC00FB6C3
:1003600007FCFACFE889F989808185FFF5CFCE01B6
:100370000E947001F1CF8B8DFE01E80FF11DE35A51
:10038000FF4FF0829FB7F8940B8FEA89FB89808139
:1003900080620AC09FB7F894EE89FF896083E8897C
:1003A000F98980818370806480839FBF81E090E0C1
:1003B000DF91CF911F910F91FF90EF900895CF9310
:1003C000DF93EC01888D8823C9F0EA89FB8980815D
:1003D00085FD05C0A889B9898C9186FD0FC00FB62F
:1003E00007FCF5CF808185FFF2CFA889B9898C9170
:1003F00085FFEDCFCE010E947001E7CFDF91CF9155
:10040000089580E090E0892B29F00E946601811117
:100410000C9400000895009769F0FC010190002001
:10042000E9F73197AF01481B590BBC018CE391E010
:100430000C94FB0080E090E008958F929F92AF9221
:10044000BF920F931F93CF93DF93CDB7DEB7A197E2
:100450000FB6F894DEBF0FBECDBF19A2423008F42C
:100460004AE08E010F5D1F4F842E912CA12CB12CE0
:10047000A50194010E946407E62FB901CA01015049
:100480001109EA3014F4E05D01C0E95CD801EC9395
:10049000232B242B252B61F7C8010E940B02A19668
:1004A0000FB6F894DEBF0FBECDBFDF91CF911F9185
:1004B0000F91BF90AF909F908F9008950E948C07EE
:1004C0001F920F920FB60F9211242F933F938F9389
:1004D0009F93AF93BF938091380190913901A09180
:1004E0003A01B0913B013091370123E0230F2D37C2
:1004F00020F40196A11DB11D05C026E8230F029628
:10050000A11DB11D209337018093380190933901CB
:10051000A0933A01B0933B01809133019091340153
:10052000A0913501B09136010196A11DB11D8093B6
:10053000330190933401A0933501B0933601BF91FC
:10054000AF919F918F913F912F910F900FBE0F9080
:100550001F9018951F920F920FB60F9211242F9390
:100560003F934F935F936F937F938F939F93AF933B
:10057000BF93EF93FF938CE391E00E947001FF9192
:10058000EF91BF91AF919F918F917F916F915F910B
:100590004F913F912F910F900FBE0F901F90189584
:1005A0001F920F920FB60F9211242F938F939F9348
:1005B000EF93FF93E0914C01F0914D018081E09128
:1005C0005201F091530182FD12C09081809155013A
:1005D0008F5F8F7320915601821751F0E091550182
:1005E000F0E0E45CFE4F958F8093550101C080815F
:1005F000FF91EF919F918F912F910F900FBE0F90D0
:100600001F901895789484B5826084BD84B581600C
:1006100084BD85B5826085BD85B5816085BD8091CD
:100620006E00816080936E00109281008091810045
:10063000826080938100809181008160809381003D
:10064000809180008160809380008091B1008460FF
:100650008093B1008091B00081608093B000809160
:100660007A00846080937A0080917A00826080931F
:100670007A0080917A00816080937A0080917A007C
:10068000806880937A001092C100E0914C01F09153
:100690004D0182E08083E0914801F0914901108290
:1006A000E0914A01F0914B018FEC8083109254014C
:1006B000E0915001F091510186E08083E0914E017C
:1006C000F0914F01808180618083E0914E01F09133
:1006D0004F01808188608083E0914E01F0914F014D
:1006E000808180688083E0914E01F0914F0180818C
:1006F0008F7D80838AE00E948F0089E00E948F00B6
:1007000061E08AE00E94AE0061E089E00E94AE00F4
:10071000CFB7F89480913201811124C0EAE9F0E06A
:100720008491EEEAF0E09491E82FF0E0EE0FFF1FE5
:10073000EA57FF4FA591B491EC91E92321F461E0D0
:100740008AE00E94AE008AE00E948F008CB5806132
:100750008CBD8CB580648CBD8DE00E948F008BE0D9
:100760000E948F00809132018F5F80933201CFBF52
:100770008CB58F7D8CBD8CB5837F8CBD8CB58C7F0B
:1007800081608CBD8DB58E7F8DBD82E191E00E9430
:100790000B028FE191E00E940B02C5E0D0E0812CBA
:1007A000912C540160E08AE00E94AE000E94870014
:1007B000C82ED12CE12CF12CFE2CED2CDC2CCC24E1
:1007C0000E948700C82AFE2CED2CDC2CCC240E9431
:1007D0008700C82A0E948700FE2CED2CDC2CCC243C
:1007E000C82A61E08AE00E94AE008FE1F822E5E0CD
:1007F000F594E794D794C794EA95D1F78C0C9D1C97
:10080000AE1CBF1C219771F6C501B4010E943D06C4
:1008100021E836E948E95EE30E94F20620E030E094
:1008200040EA50E40E949A054B015C013FB7F894FE
:100830008091330190913401A0913501B09136013E
:1008400026B5A89B05C02F3F19F00196A11DB11D2B
:100850003FBFCC24D82EE92EFA2EC20ED11CE11CAB
:10086000F11C42E0CC0CDD1CEE1CFF1C4A95D1F7BC
:10087000C6010D2C000CEE08FF0897FF0EC06DE2BC
:100880008CE391E00E94920166277727CB016C19D7
:100890007D098E099F094AE003C04AE0C701B601FD
:1008A0000E941D0282E291E00E940B02A5019401C8
:1008B000C501B4010E945F07882319F085E291E029
:1008C0001AC075016401E894F7F82FEF3FEF4FE786
:1008D0005FE7C701B6010E945F0781110FC02FEFCC
:1008E0003FEF4FE75FE7C701B6010E949505181675
:1008F0002CF489E291E00E940B0276C02FEF3FEFCB
:100900004FE75FE4C501B4010E94ED0618161CF420
:100910008DE291E0F0CF2FEF3FEF4FE75FECC501A5
:10092000B4010E94950587FDF3CF20E030E0A901D6
:10093000C501B4010E94950587FF09C06DE28CE3F3
:1009400091E00E949201B7FAB094B7F8B0942AE00F
:1009500037ED43EA5BE3C501B4010E9429054B0171
:100960005C010E940C066B017C010E943B069B010E
:10097000AC01C501B4010E9428054B015C014AE0AD
:10098000C701B6010E941D026EE28CE391E00E9455
:10099000920120E030E040E251E4C501B4010E9440
:1009A000F2064B015C010E940C066B01E12CF12C5C
:1009B0004AE0C701B6010E941D02C701B6010E94AC
:1009C0003B069B01AC01C501B4010E94280520E053
:1009D00030E040E251E40E94F2060E940C0680E002
:1009E00090E04AE00E941D028FE191E00E940B021C
:1009F0000E940102D2CEECE3F1E01382128288EE73
:100A000093E0A0E0B0E084839583A683B78384E07D
:100A100091E09183808385EC90E09587848784ECD6
:100A200090E09787868780EC90E0918B808B81ECBB
:100A300090E0938B828B82EC90E0958B848B86EC9C
:100A400090E0978B868B118E128E138E148E0895E4
:100A50005058BB27AA270E9440050C94B3060E9459
:100A6000A50638F00E94AC0620F039F49F3F19F437
:100A700026F40C94A2060EF4E095E7FB0C949C0679
:100A8000E92F0E94C40658F3BA1762077307840758
:100A9000950720F079F4A6F50C94E6060EF4E0959F
:100AA0000B2EBA2FA02D0B01B90190010C01CA0128
:100AB000A0011124FF27591B99F0593F50F4503ED3
:100AC00068F11A16F040A22F232F342F4427585FC5
:100AD000F3CF469537952795A795F0405395C9F7DD
:100AE0007EF41F16BA0B620B730B840BBAF0915095
:100AF000A1F0FF0FBB1F661F771F881FC2F70EC034
:100B0000BA0F621F731F841F48F487957795679506
:100B1000B795F7959E3F08F0B0CF9395880F08F0F2
:100B20009927EE0F9795879508950E94780608F407
:100B300081E008950E94AE050C94B3060E94AC06B5
:100B400058F00E94A50640F029F45F3F29F00C946C
:100B50009C0651110C94E7060C94A2060E94C40650
:100B600068F39923B1F3552391F3951B550BBB27DC
:100B7000AA2762177307840738F09F5F5F4F220F21
:100B8000331F441FAA1FA9F335D00E2E3AF0E0E818
:100B900032D091505040E695001CCAF72BD0FE2F62
:100BA00029D0660F771F881FBB1F261737074807F6
:100BB000AB07B0E809F0BB0B802DBF01FF279358AE
:100BC0005F4F3AF09E3F510578F00C949C060C94D0
:100BD000E7065F3FE4F3983ED4F3869577956795F3
:100BE000B795F7959F5FC9F7880F911D96958795E3
:100BF00097F90895E1E0660F771F881FBB1F621702
:100C000073078407BA0720F0621B730B840BBA0BBF
:100C1000EE1F88F7E09508950E94CC0688F09F5754
:100C200098F0B92F9927B751B0F0E1F0660F771F10
:100C3000881F991F1AF0BA95C9F714C0B13091F006
:100C40000E94E606B1E008950C94E606672F782F1F
:100C50008827B85F39F0B93FCCF3869577956795CB
:100C6000B395D9F73EF490958095709561957F4F37
:100C70008F4F9F4F0895E89409C097FB3EF49095DD
:100C80008095709561957F4F8F4F9F4F9923A9F065
:100C9000F92F96E9BB279395F695879577956795F4
:100CA000B795F111F8CFFAF4BB0F11F460FF1BC038
:100CB0006F5F7F4F8F4F9F4F16C0882311F096E9CB
:100CC00011C0772321F09EE8872F762F05C0662379
:100CD00071F096E8862F70E060E02AF09A95660F32
:100CE000771F881FDAF7880F9695879597F90895EB
:100CF000990F0008550FAA0BE0E8FEEF161617062D
:100D0000E807F907C0F012161306E407F50798F094
:100D1000621B730B840B950B39F40A2661F0232BAD
:100D2000242B252B21F408950A2609F4A140A69529
:100D30008FEF811D811D089597F99F6780E870E00E
:100D400060E008959FEF80EC089500240A94161641
:100D5000170618060906089500240A9412161306A9
:100D6000140605060895092E0394000C11F4882337
:100D700052F0BB0F40F4BF2B11F460FF04C06F5F53
:100D80007F4F8F4F9F4F089557FD9058440F551F29
:100D900059F05F3F71F04795880F97FB991F61F0FD
:100DA0009F3F79F087950895121613061406551F74
:100DB000F2CF4695F1DF08C0161617061806991FE0
:100DC000F1CF86957105610508940895E894BB27D5
:100DD00066277727CB0197F908950E94780608F4D3
:100DE0008FEF08950E9405070C94B3060E94A50694
:100DF00038F00E94AC0620F0952311F00C949C066C
:100E00000C94A20611240C94E7060E94C40670F309
:100E1000959FC1F3950F50E0551F629FF001729F9F
:100E2000BB27F00DB11D639FAA27F00DB11DAA1FAE
:100E3000649F6627B00DA11D661F829F2227B00DFB
:100E4000A11D621F739FB00DA11D621F839FA00D86
:100E5000611D221F749F3327A00D611D231F849FD6
:100E6000600D211D822F762F6A2F11249F5750402D
:100E70009AF0F1F088234AF0EE0FFF1FBB1F661FA8
:100E8000771F881F91505040A9F79E3F510580F071
:100E90000C949C060C94E7065F3FE4F3983ED4F371
:100EA000869577956795B795F795E7959F5FC1F715
:100EB000FE2B880F911D9695879597F908950E94AE
:100EC0007806880B990B0895A1E21A2EAA1BBB1B6A
:100ED000FD010DC0AA1FBB1FEE1FFF1FA217B30706
:100EE000E407F50720F0A21BB30BE40BF50B661F1C
:100EF000771F881F991F1A9469F7609570958095E0
:100F000090959B01AC01BD01CF010895EE0FFF1F2D
:100F10000590F491E02D099481E090E0F8940C9410
:060F20009107F894FFCFD9
:100F2600000000009201FB002901DF015A0138018F
:100F36004C014C5443323434302054657374000DE4
:100F46000A002C20006E616E00696E66006F766680
:020F5600000099
:107E0000112484B714BE81FFF0D085E080938100F7
:107E100082E08093C00088E18093C10086E0809377
:107E2000C20080E18093C4008EE0C9D0259A86E02C
:107E300020E33CEF91E0309385002093840096BBD3
:107E4000B09BFECF1D9AA8958150A9F7CC24DD24C4
:107E500088248394B5E0AB2EA1E19A2EF3E0BF2EE7
:107E6000A2D0813461F49FD0082FAFD0023811F036
:107E7000013811F484E001C083E08DD089C08234E0
:107E800011F484E103C0853419F485E0A6D080C0E4
:107E9000853579F488D0E82EFF2485D0082F10E0AE
:107EA000102F00270E291F29000F111F8ED06801E7
:107EB0006FC0863521F484E090D080E0DECF843638
:107EC00009F040C070D06FD0082F6DD080E0C81688
:107ED00080E7D80618F4F601B7BEE895C0E0D1E017
:107EE00062D089930C17E1F7F0E0CF16F0E7DF06D8
:107EF00018F0F601B7BEE89568D007B600FCFDCFD4
:107F0000A601A0E0B1E02C9130E011968C91119780
:107F100090E0982F8827822B932B1296FA010C0160
:107F200087BEE89511244E5F5F4FF1E0A038BF0790
:107F300051F7F601A7BEE89507B600FCFDCF97BE46
:107F4000E89526C08437B1F42ED02DD0F82E2BD052
:107F50003CD0F601EF2C8F010F5F1F4F84911BD097
:107F6000EA94F801C1F70894C11CD11CFA94CF0C13
:107F7000D11C0EC0853739F428D08EE10CD085E9AC
:107F80000AD08FE07ACF813511F488E018D01DD067
:107F900080E101D065CF982F8091C00085FFFCCF94
:107FA0009093C60008958091C00087FFFCCF809118
:107FB000C00084FD01C0A8958091C6000895E0E648
:107FC000F0E098E1908380830895EDDF803219F02E
:107FD00088E0F5DFFFCF84E1DECF1F93182FE3DFCA
:107FE0001150E9F7F2DF1F91089580E0E8DFEE27F6
:047FF000FF270994CA
:027FFE00040479
:0400000300007E007B
:00000001FF
