:100000000C9435000C945D000C945D000C945D0024
:100010000C945D000C945D000C945D000C945D00EC
:100020000C945D000C945D000C945D000C945D00DC
:100030000C945D000C945D000C945D000C945D00CC
:100040000C94A8010C945D000C9418020C94F2011D
:100050000C945D000C944A020C945D000C945D00BD
:100060000C945D000C945D00550411241FBECFEF6D
:10007000D8E0DEBFCDBF11E0A0E0B1E0EAEDFDE0E9
:1000800002C005900D92AC33B107D9F721E0ACE383
:10009000B1E001C01D92AC3EB207E1F710E0C5E34C
:1000A000D0E004C02197FE010E94E006C433D107CE
:1000B000C9F70E9463020C94EB060C9400003FB752
:1000C000F89480914B0190914C01A0914D01B09119
:1000D0004E0126B5A89B05C02F3F19F00196A11D22
:1000E000B11D3FBFBA2FA92F982F8827820F911DCE
:1000F000A11DB11DBC01CD0142E0660F771F881F15
:10010000991F4A95D1F70895CF92DF92EF92FF920F
:100110000F931F93CF93DF936C017A018B01C0E0A3
:10012000D0E0CE15DF0581F0D8016D918D01D601AB
:10013000ED91FC910190F081E02DC6010995892B8C
:1001400011F02196EECF7E01C701DF91CF911F9173
:100150000F91FF90EF90DF90CF900895089580E089
:1001600090E00895FC01538D448D252F30E0842FBD
:1001700090E0821B930B541710F0CF9608950197CF
:100180000895FC01918D828D981761F0828DDF01B9
:10019000A80FB11D5D968C91928D9F5F9F73928F7A
:1001A00090E008958FEF9FEF0895FC01918D828D6F
:1001B000981731F0828DE80FF11D858D90E008953C
:1001C0008FEF9FEF0895FC01918D228D892F90E094
:1001D000805C9F4F821B91098F73992708958FE44C
:1001E00091E00E94E30021E0892B09F420E0822FB6
:1001F0000895FC01848DDF01A80FB11DA35ABF4FE4
:100200002C91848D90E001968F739927848FA68915
:10021000B7892C93A089B1898C91837080648C9369
:10022000938D848D981306C00288F389E02D808118
:100230008F7D80830895EF92FF920F931F93CF934A
:10024000DF93EC0181E0888F9B8D8C8D981305C026
:10025000E889F989808185FD26C0F62E0B8D10E096
:100260000F5F1F4F0F731127E02E8C8DE8120CC00B
:100270000FB607FCFACFE889F989808185FFF5CFB1
:10028000CE010E94F900F1CF8B8DFE01E80FF11D28
:10029000E35AFF4FF0829FB7F8940B8FEA89FB89EE
:1002A000808180620AC09FB7F894EE89FF896083DD
:1002B000E889F98980818370806480839FBF81E0B1
:1002C00090E0DF91CF911F910F91FF90EF900895F3
:1002D000CF93DF93EC01888D8823C9F0EA89FB89ED
:1002E000808185FD05C0A889B9898C9186FD0FC0E4
:1002F0000FB607FCF5CF808185FFF2CFA889B989B9
:100300008C9185FFEDCFCE010E94F900E7CFDF9100
:10031000CF91089580E090E0892B29F00E94EF00B2
:1003200081110C9400000895009769F0FC01019080
:100330000020E9F73197AF01481B590BBC018FE44E
:1003400091E00C94840080E090E008950E94E6061D
:100350001F920F920FB60F9211242F933F938F93FA
:100360009F93AF93BF938091470190914801A091D3
:100370004901B0914A013091460123E0230F2D3706
:1003800020F40196A11DB11D05C026E8230F029699
:10039000A11DB11D20934601809347019093480110
:1003A000A0934901B0934A0180914B0190914C0177
:1003B000A0914D01B0914E010196A11DB11D8093F8
:1003C0004B0190934C01A0934D01B0934E01BF910E
:1003D000AF919F918F913F912F910F900FBE0F90F2
:1003E0001F9018951F920F920FB60F9211242F9302
:1003F0003F934F935F936F937F938F939F93AF93AD
:10040000BF93EF93FF938FE491E00E94F900FF9177
:10041000EF91BF91AF919F918F917F916F915F917C
:100420004F913F912F910F900FBE0F901F901895F5
:100430001F920F920FB60F9211242F938F939F93B9
:10044000EF93FF93E0915F01F09160018081E09173
:100450006501F091660182FD12C090818091680172
:100460008F5F8F7320916901821751F0E0916801CD
:10047000F0E0E15BFE4F958F8093680101C08081C1
:10048000FF91EF919F918F912F910F900FBE0F9041
:100490001F9018951F920F920FB60F9211248F93F1
:1004A0009F9380917900809144019091450101963C
:1004B00090934501809344019F918F910F900FBEBF
:1004C0000F901F901895CF93DF93CDB7DEB7A1970C
:1004D0000FB6F894DEBF0FBECDBF789484B58260AE
:1004E00084BD84B5816084BD85B5826085BD85B5D8
:1004F000816085BD80916E00816080936E00109256
:1005000081008091810082608093810080918100D0
:100510008160809381008091800081608093800061
:100520008091B10084608093B1008091B0008160BF
:100530008093B00080917A00846080937A008091EB
:100540007A00826080937A0080917A008160809343
:100550007A0080917A00806880937A001092C100BE
:10056000E0915F01F091600182E08083E0915B01A6
:10057000F0915C011082E0915D01F0915E018FECE1
:10058000808310926701E0916301F091640186E03D
:100590008083E0916101F0916201808180618083BC
:1005A000E0916101F0916201808188608083E09137
:1005B0006101F0916201808180688083E091610136
:1005C000F091620180818F7D808310927A00109279
:1005D0007B0080917C0080937C0080917C00806413
:1005E00080937C0080917C00806280937C0080916D
:1005F0007A00887F80937A0080917A00826080936D
:100600007A0080917A00806280937A0080917A00EB
:10061000886080937A0080917A00806880937A0065
:1006200080917A00806480937A0080914401909157
:100630004501883E93400CF435C10E945F00009153
:100640004001109141012091420130914301DC01B0
:10065000CB01801B910BA20BB30B80933C019093B9
:100660003D01A0933E01B0933F0182E191E00E94E1
:10067000940160913C0170913D0180913E01909107
:100680003F010E9497059B01AC0160E074E284E7A2
:1006900099E40E94F4046B017C014B015C019B0115
:1006A000AC010E94B906882319F087E291E01AC0D4
:1006B00026013701E89477F82FEF3FEF4FE75FE728
:1006C000C301B2010E94B90681110FC02FEF3FEFA5
:1006D0004FE75FE7C301B2010E94EF0418162CF444
:1006E0008BE291E00E949401A0C02FEF3FEF4FE713
:1006F0005FE4C701B6010E94470618161CF48FE29A
:1007000091E0F0CF2FEF3FEF4FE75FECC701B6016D
:100710000E94EF0487FDF3CF20E030E0A901C7017C
:10072000B6010E94EF0487FF0BC06DE28FE491E0F9
:100730000E941B0146015701B7FAB094B7F8B09474
:100740002AE037ED43EA5BE3C501B4010E9483046C
:100750006B017C010E9466054B015C010E949505BE
:100760009B01AC01C701B6010E9482042B013C0130
:1007700019A27E0181E2E80EF11C0E2DDF2CC501CD
:10078000B4012AE030E040E050E00E94BE0649019A
:100790005A01605DF70162937F01232B242B252BE7
:1007A00071F7CF010E9494016EE28FE491E00E9404
:1007B0001B0113E01150C9F120E030E040E251E4A8
:1007C000C301B2010E944C064B015C010E94660508
:1007D0009B0140E050E019A2E02EFD2C562E632E26
:1007E000742EC52ECA01B9012AE030E040E050E085
:1007F0000E94BE06605DF70162937F0121153105FD
:100800004105510579F7CF010E949401652D762DA0
:10081000872D9C2D0E9495059B01AC01C501B4015B
:100820000E9482042B013C01C5CF83E391E00E942A
:10083000940188E391E00E9494010E945F004B01C3
:100840005C0180EDC82E87E0D82EE12CF12C0E94AF
:100850005F00DC01CB0188199909AA09BB09883E10
:100860009340A105B10598F3F1E0CF1AD108E10852
:10087000F10828EE820E23E0921EA11CB11CC114C7
:10088000D104E104F10419F70E945F006093400174
:10089000709341018093420190934301109245016E
:1008A000109244010E948A01C0CEEFE4F1E013826D
:1008B000128288EE93E0A0E0B0E084839583A68363
:1008C000B78384E091E09183808385EC90E0958705
:1008D000848784EC90E09787868780EC90E0918B0A
:1008E000808B81EC90E0938B828B82EC90E0958BF7
:1008F000848B86EC90E0978B868B118E128E138EF4
:10090000148E08955058BB27AA270E949A040C946D
:100910000D060E94FF0538F00E94060620F039F40B
:100920009F3F19F426F40C94FC050EF4E095E7FBC8
:100930000C94F605E92F0E941E0658F3BA176207B9
:1009400073078407950720F079F4A6F50C94400608
:100950000EF4E0950B2EBA2FA02D0B01B9019001DA
:100960000C01CA01A0011124FF27591B99F0593F1E
:1009700050F4503E68F11A16F040A22F232F342F66
:100980004427585FF3CF469537952795A795F040B4
:100990005395C9F77EF41F16BA0B620B730B840BC9
:1009A000BAF09150A1F0FF0FBB1F661F771F881F81
:1009B000C2F70EC0BA0F621F731F841F48F48795D9
:1009C00077956795B795F7959E3F08F0B0CF9395CB
:1009D000880F08F09927EE0F9795879508950E9444
:1009E000D20508F481E008950E9408050C940D06D4
:1009F0000E94060658F00E94FF0540F029F45F3F70
:100A000029F00C94F60551110C9441060C94FC0548
:100A10000E941E0668F39923B1F3552391F3951BA9
:100A2000550BBB27AA2762177307840738F09F5F0F
:100A30005F4F220F331F441FAA1FA9F335D00E2E7C
:100A40003AF0E0E832D091505040E695001CCAF7E9
:100A50002BD0FE2F29D0660F771F881FBB1F2617AC
:100A600037074807AB07B0E809F0BB0B802DBF0183
:100A7000FF2793585F4F3AF09E3F510578F00C9452
:100A8000F6050C9441065F3FE4F3983ED4F3869557
:100A900077956795B795F7959F5FC9F7880F911D73
:100AA0009695879597F90895E1E0660F771F881F5F
:100AB000BB1F621773078407BA0720F0621B730B12
:100AC000840BBA0BEE1F88F7E09508950E94260666
:100AD00088F09F5798F0B92F9927B751B0F0E1F0FF
:100AE000660F771F881F991F1AF0BA95C9F714C0AF
:100AF000B13091F00E944006B1E008950C94400698
:100B0000672F782F8827B85F39F0B93FCCF38695E7
:100B100077956795B395D9F73EF490958095709544
:100B200061957F4F8F4F9F4F0895E89409C097FBC1
:100B30003EF490958095709561957F4F8F4F9F4FB4
:100B40009923A9F0F92F96E9BB279395F6958795F8
:100B500077956795B795F111F8CFFAF4BB0F11F4BB
:100B600060FF1BC06F5F7F4F8F4F9F4F16C0882362
:100B700011F096E911C0772321F09EE8872F762F98
:100B800005C0662371F096E8862F70E060E02AF0D9
:100B90009A95660F771F881FDAF7880F96958795C5
:100BA00097F90895990F0008550FAA0BE0E8FEEF9A
:100BB00016161706E807F907C0F012161306E40721
:100BC000F50798F0621B730B840B950B39F40A261A
:100BD00061F0232B242B252B21F408950A2609F4F8
:100BE000A140A6958FEF811D811D089597F99F67FC
:100BF00080E870E060E008959FEF80EC08950024A5
:100C00000A941616170618060906089500240A9471
:100C100012161306140605060895092E0394000CF7
:100C200011F4882352F0BB0F40F4BF2B11F460FF86
:100C300004C06F5F7F4F8F4F9F4F089557FD9058AF
:100C4000440F551F59F05F3F71F04795880F97FB90
:100C5000991F61F09F3F79F087950895121613064A
:100C60001406551FF2CF4695F1DF08C01616170679
:100C70001806991FF1CF86957105610508940895AE
:100C8000E894BB2766277727CB0197F908950E9440
:100C9000D20508F48FEF08950E945F060C940D06AC
:100CA0000E94FF0538F00E94060620F0952311F0FF
:100CB0000C94F6050C94FC0511240C9441060E943A
:100CC0001E0670F3959FC1F3950F50E0551F629F6C
:100CD000F001729FBB27F00DB11D639FAA27F00D95
:100CE000B11DAA1F649F6627B00DA11D661F829FBC
:100CF0002227B00DA11D621F739FB00DA11D621FA1
:100D0000839FA00D611D221F749F3327A00D611DBD
:100D1000231F849F600D211D822F762F6A2F11249F
:100D20009F5750409AF0F1F088234AF0EE0FFF1FD2
:100D3000BB1F661F771F881F91505040A9F79E3F29
:100D4000510580F00C94F6050C9441065F3FE4F3E6
:100D5000983ED4F3869577956795B795F795E7957F
:100D60009F5FC1F7FE2B880F911D9695879597F988
:100D700008950E94D205880B990B0895A1E21A2EBE
:100D8000AA1BBB1BFD010DC0AA1FBB1FEE1FFF1F2F
:100D9000A217B307E407F50720F0A21BB30BE40B7F
:100DA000F50B661F771F881F991F1A9469F76095C6
:100DB0007095809590959B01AC01BD01CF01089580
:100DC000EE0FFF1F0590F491E02D099481E090E073
:0A0DD000F8940C94EB06F894FFCFA2
:100DDA00000000001B018400B2006801E300C100AA
:100DEA00D50053616D706C696E67206672657175A6
:100DFA00656E63793A20006E616E00696E66006FF7
:0C0E0A00766600204B487A000D0A0000BC
:107E0000112484B714BE81FFF0D085E080938100F7
:107E100082E08093C00088E18093C10086E0809377
:107E2000C20080E18093C4008EE0C9D0259A86E02C
:107E300020E33CEF91E0309385002093840096BBD3
:107E4000B09BFECF1D9AA8958150A9F7CC24DD24C4
:107E500088248394B5E0AB2EA1E19A2EF3E0BF2EE7
:107E6000A2D0813461F49FD0082FAFD0023811F036
:107E7000013811F484E001C083E08DD089C08234E0
:107E800011F484E103C0853419F485E0A6D080C0E4
:107E9000853579F488D0E82EFF2485D0082F10E0AE
:107EA000102F00270E291F29000F111F8ED06801E7
:107EB0006FC0863521F484E090D080E0DECF843638
:107EC00009F040C070D06FD0082F6DD080E0C81688
:107ED00080E7D80618F4F601B7BEE895C0E0D1E017
:107EE00062D089930C17E1F7F0E0CF16F0E7DF06D8
:107EF00018F0F601B7BEE89568D007B600FCFDCFD4
:107F0000A601A0E0B1E02C9130E011968C91119780
:107F100090E0982F8827822B932B1296FA010C0160
:107F200087BEE89511244E5F5F4FF1E0A038BF0790
:107F300051F7F601A7BEE89507B600FCFDCF97BE46
:107F4000E89526C08437B1F42ED02DD0F82E2BD052
:107F50003CD0F601EF2C8F010F5F1F4F84911BD097
:107F6000EA94F801C1F70894C11CD11CFA94CF0C13
:107F7000D11C0EC0853739F428D08EE10CD085E9AC
:107F80000AD08FE07ACF813511F488E018D01DD067
:107F900080E101D065CF982F8091C00085FFFCCF94
:107FA0009093C60008958091C00087FFFCCF809118
:107FB000C00084FD01C0A8958091C6000895E0E648
:107FC000F0E098E1908380830895EDDF803219F02E
:107FD00088E0F5DFFFCF84E1DECF1F93182FE3DFCA
:107FE0001150E9F7F2DF1F91089580E0E8DFEE27F6
:047FF000FF270994CA
:027FFE00040479
:0400000300007E007B
:00000001FF
