:100000000C9435000C945D000C945D000C945D0024
:100010000C945D000C945D000C945D000C945D00EC
:100020000C945D000C945D000C945D000C945D00DC
:100030000C945D000C945D000C945D000C945D00CC
:100040000C94ED010C945D000C945D020C9437024D
:100050000C945D000C945D000C945D000C945D00AC
:100060000C945D000C945D00490411241FBECFEF79
:10007000D8E0DEBFCDBF11E0A0E0B1E0E2ECFDE0F2
:1000800002C005900D92AC36B107D9F722E0ACE67C
:10009000B1E001C01D92AA32B207E1F710E0C5E35A
:1000A000D0E004C02197FE010E94D406C433D107DA
:1000B000C9F70E948F020C94DF060C9400003FB732
:1000C000F8948091890190918A01A0918B01B0915F
:1000D0008C0126B5A89B05C02F3F19F00196A11DE4
:1000E000B11D3FBFBA2FA92F982F8827820F911DCE
:1000F000A11DB11DBC01CD0142E0660F771F881F15
:10010000991F4A95D1F70895CF92DF92EF92FF920F
:100110000F931F93CF93DF936C017A018B01C0E0A3
:10012000D0E0CE15DF0581F0D8016D918D01D601AB
:10013000ED91FC910190F081E02DC6010995892B8C
:1001400011F02196EECF7E01C701DF91CF911F9173
:100150000F91FF90EF90DF90CF900895089580E089
:1001600090E00895FC01538D448D252F30E0842FBD
:1001700090E0821B930B541710F0CF9608950197CF
:100180000895FC01918D828D981761F0828DDF01B9
:10019000A80FB11D5D968C91928D9F5F9F73928F7A
:1001A00090E008958FEF9FEF0895FC01918D828D6F
:1001B000981731F0828DE80FF11D858D90E008953C
:1001C0008FEF9FEF0895FC01918D228D892F90E094
:1001D000805C9F4F821B91098F73992708958DE84A
:1001E00091E00E94E30021E0892B09F420E0822FB6
:1001F0000895FC01848DDF01A80FB11DA35ABF4FE4
:100200002C91848D90E001968F739927848FA68915
:10021000B7892C93A089B1898C91837080648C9369
:10022000938D848D981306C00288F389E02D808118
:100230008F7D80830895EF92FF920F931F93CF934A
:10024000DF93EC0181E0888F9B8D8C8D981305C026
:10025000E889F989808185FD26C0F62E0B8D10E096
:100260000F5F1F4F0F731127E02E8C8DE8120CC00B
:100270000FB607FCFACFE889F989808185FFF5CFB1
:10028000CE010E94F900F1CF8B8DFE01E80FF11D28
:10029000E35AFF4FF0829FB7F8940B8FEA89FB89EE
:1002A000808180620AC09FB7F894EE89FF896083DD
:1002B000E889F98980818370806480839FBF81E0B1
:1002C00090E0DF91CF911F910F91FF90EF900895F3
:1002D000CF93DF93EC01888D8823C9F0EA89FB89ED
:1002E000808185FD05C0A889B9898C9186FD0FC0E4
:1002F0000FB607FCF5CF808185FFF2CFA889B989B9
:100300008C9185FFEDCFCE010E94F900E7CFDF9100
:10031000CF91089580E090E0892B29F00E94EF00B2
:1003200081110C9400000895009769F0FC01019080
:100330000020E9F73197AF01481B590BBC018DE84C
:1003400091E00C94840080E090E0089582E191E0D7
:100350000C9494018F929F92AF92BF920F931F9330
:10036000CF93DF93CDB7DEB7A1970FB6F894DEBF7A
:100370000FBECDBF19A2423008F44AE08E010F5DD6
:100380001F4F842E912CA12CB12CA50194010E9409
:10039000B206E62FB901CA0101501109EA3014F47E
:1003A000E05D01C0E95CD801EC93232B242B252BC5
:1003B00061F7C8010E949401A1960FB6F894DEBFC0
:1003C0000FBECDBFDF91CF911F910F91BF90AF9026
:1003D0009F908F9008950E94DA061F920F920FB699
:1003E0000F9211242F933F938F939F93AF93BF93BB
:1003F0008091850190918601A0918701B09188013B
:100400003091840123E0230F2D3720F40196A11DA4
:10041000B11D05C026E8230F0296A11DB11D209332
:1004200084018093850190938601A0938701B09306
:1004300088018091890190918A01A0918B01B091EE
:100440008C010196A11DB11D8093890190938A01B1
:10045000A0938B01B0938C01BF91AF919F918F912D
:100460003F912F910F900FBE0F901F9018951F92E4
:100470000F920FB60F9211242F933F934F935F93D8
:100480006F937F938F939F93AF93BF93EF93FF935C
:100490008DE891E00E94F900FF91EF91BF91AF913B
:1004A0009F918F917F916F915F914F913F912F918C
:1004B0000F900FBE0F901F9018951F920F920FB6BE
:1004C0000F9211242F938F939F93EF93FF93E091BB
:1004D0009D01F0919E018081E091A301F091A40122
:1004E00082FD12C090818091A6018F5F8F73209151
:1004F000A701821751F0E091A601F0E0E357FE4F0B
:10050000958F8093A60101C08081FF91EF919F910B
:100510008F912F910F900FBE0F901F901895789488
:1005200084B5826084BD84B5816084BD85B58260F8
:1005300085BD85B5816085BD80916E0081608093A9
:100540006E00109281008091810082608093810012
:100550008091810081608093810080918000816022
:10056000809380008091B10084608093B10080917D
:10057000B00081608093B00080917A0084608093A5
:100580007A0080917A00826080937A0080917A006C
:10059000816080937A0080917A00806880937A00ED
:1005A0001092C100E0919D01F0919E0182E0808354
:1005B000E0919901F0919A011082E0919B01F091F4
:1005C0009C018FEC80831092A501E091A101F09134
:1005D000A20186E08083E0919F01F091A0018081DB
:1005E00080618083E0919F01F091A001808188600B
:1005F0008083E0919F01F091A001808180688083D9
:10060000E0919F01F091A00180818F7D80830E9405
:10061000A60180E680937C0080917A00887F809399
:100620007A0080917A00816080937A0010926C0148
:1006300010926D0110926E0110926F010E945F0086
:100640004B015C0128EE33E0E0E4E0937C00809114
:100650007A00806480937A0080917A0086FDFCCFD6
:10066000809178004091790090E0942B092E000C45
:10067000AA0BBB0B40916C0150916D0160916E0112
:1006800070916F01840F951FA61FB71F80936C0197
:1006900090936D01A0936E01B0936F0121503109C9
:1006A000A1F60E945F006B017C0185E191E00E9450
:1006B00094014AE060E070E0CB010E94AA0184E26C
:1006C00091E00E94940160916C0170916D018091A4
:1006D0006E0190916F0128EE33E040E050E00E94FF
:1006E000B206CA01B9014AE00E94AA010E94A6010D
:1006F00088E391E00E949401C818D908EA08FB0831
:100700004AE0C701B6010E94AA010E94A60186E440
:1007100091E00E949401C701B6010E9489059B01E6
:10072000AC0160E074E284E799E40E94E8046B01A4
:100730007C014B015C019B01AC010E94AD0688234A
:1007400019F08BE591E01AC026013701E89477F89B
:100750002FEF3FEF4FE75FE7C301B2010E94AD0605
:1007600081110FC02FEF3FEF4FE75FE7C301B201E9
:100770000E94E30418162CF48FE591E00E94940186
:1007800078C02FEF3FEF4FE75FE4C701B6010E944B
:100790003B0618161CF483E691E0F0CF2FEF3FEFF5
:1007A0004FE75FECC701B6010E94E30487FDF3CF7A
:1007B00020E030E0A901C701B6010E94E30487FFF1
:1007C0000BC06DE28DE891E00E941B0146015701CC
:1007D000B7FAB094B7F8B0942AE037ED43EA5BE398
:1007E000C501B4010E9477044B015C010E945A05C7
:1007F0006B017C010E9489059B01AC01C501B4011C
:100800000E9476044B015C014AE0C701B6010E94D8
:10081000AA016EE28DE891E00E941B0120E030E029
:1008200040E251E4C501B4010E9440064B015C0165
:100830000E945A056B01E12CF12C4AE0C701B60178
:100840000E94AA01C701B6010E9489059B01AC0163
:10085000C501B4010E94760420E030E040E251E49A
:100860000E9440060E945A0580E090E04AE00E9403
:10087000AA0187E691E00E9494010E94A6010E94CD
:10088000A6018DE891E00E94680180E090E00E945E
:10089000DF06EDE8F1E01382128288EE93E0A0E03B
:1008A000B0E084839583A683B78384E091E091834D
:1008B000808385EC90E09587848784EC90E097872F
:1008C000868780EC90E0918B808B81EC90E0938B1D
:1008D000828B82EC90E0958B848B86EC90E0978BFA
:1008E000868B118E128E138E148E08955058BB274E
:1008F000AA270E948E040C9401060E94F30538F08A
:100900000E94FA0520F039F49F3F19F426F40C9464
:10091000F0050EF4E095E7FB0C94EA05E92F0E9440
:10092000120658F3BA17620773078407950720F079
:1009300079F4A6F50C9434060EF4E0950B2EBA2F3C
:10094000A02D0B01B90190010C01CA01A0011124D5
:10095000FF27591B99F0593F50F4503E68F11A1681
:10096000F040A22F232F342F4427585FF3CF469512
:1009700037952795A795F0405395C9F77EF41F1634
:10098000BA0B620B730B840BBAF09150A1F0FF0FFE
:10099000BB1F661F771F881FC2F70EC0BA0F621FEA
:1009A000731F841F48F4879577956795B795F795DA
:1009B0009E3F08F0B0CF9395880F08F09927EE0F6F
:1009C0009795879508950E94C60508F481E00895DB
:1009D0000E94FC040C9401060E94FA0558F00E9443
:1009E000F30540F029F45F3F29F00C94EA0551111A
:1009F0000C9435060C94F0050E94120668F39923B6
:100A0000B1F3552391F3951B550BBB27AA2762170A
:100A10007307840738F09F5F5F4F220F331F441F17
:100A2000AA1FA9F335D00E2E3AF0E0E832D091504B
:100A30005040E695001CCAF72BD0FE2F29D0660F38
:100A4000771F881FBB1F261737074807AB07B0E87B
:100A500009F0BB0B802DBF01FF2793585F4F3AF081
:100A60009E3F510578F00C94EA050C9435065F3FE3
:100A7000E4F3983ED4F3869577956795B795F79507
:100A80009F5FC9F7880F911D9695879597F90895EF
:100A9000E1E0660F771F881FBB1F6217730784078B
:100AA000BA0720F0621B730B840BBA0BEE1F88F79A
:100AB000E09508950E941A0688F09F5798F0B92F84
:100AC0009927B751B0F0E1F0660F771F881F991F83
:100AD0001AF0BA95C9F714C0B13091F00E943406EB
:100AE000B1E008950C943406672F782F8827B85FFB
:100AF00039F0B93FCCF3869577956795B395D9F7DB
:100B00003EF490958095709561957F4F8F4F9F4FE4
:100B10000895E89409C097FB3EF4909580957095F0
:100B200061957F4F8F4F9F4F9923A9F0F92F96E939
:100B3000BB279395F695879577956795B795F111AE
:100B4000F8CFFAF4BB0F11F460FF1BC06F5F7F4F4B
:100B50008F4F9F4F16C0882311F096E911C077235D
:100B600021F09EE8872F762F05C0662371F096E866
:100B7000862F70E060E02AF09A95660F771F881F35
:100B8000DAF7880F9695879597F90895990F0008D9
:100B9000550FAA0BE0E8FEEF16161706E807F9074F
:100BA000C0F012161306E407F50798F0621B730BEA
:100BB000840B950B39F40A2661F0232B242B252B6B
:100BC00021F408950A2609F4A140A6958FEF811D0E
:100BD000811D089597F99F6780E870E060E00895AF
:100BE0009FEF80EC089500240A9416161706180645
:100BF0000906089500240A94121613061406050621
:100C00000895092E0394000C11F4882352F0BB0FB1
:100C100040F4BF2B11F460FF04C06F5F7F4F8F4F14
:100C20009F4F089557FD9058440F551F59F05F3F4F
:100C300071F04795880F97FB991F61F09F3F79F0FE
:100C400087950895121613061406551FF2CF469580
:100C5000F1DF08C0161617061806991FF1CF869502
:100C60007105610508940895E894BB2766277727E6
:100C7000CB0197F908950E94C60508F48FEF0895F7
:100C80000E9453060C9401060E94F30538F00E945E
:100C9000FA0520F0952311F00C94EA050C94F00568
:100CA00011240C9435060E94120670F3959FC1F32F
:100CB000950F50E0551F629FF001729FBB27F00D0A
:100CC000B11D639FAA27F00DB11DAA1F649F66275F
:100CD000B00DA11D661F829F2227B00DA11D621FAE
:100CE000739FB00DA11D621F839FA00D611D221F68
:100CF000749F3327A00D611D231F849F600D211D4C
:100D0000822F762F6A2F11249F5750409AF0F1F0CE
:100D100088234AF0EE0FFF1FBB1F661F771F881F37
:100D200091505040A9F79E3F510580F00C94EA0580
:100D30000C9435065F3FE4F3983ED4F3869577959F
:100D40006795B795F795E7959F5FC1F7FE2B880FDD
:100D5000911D9695879597F908950E94C605880B71
:100D6000990B0895A1E21A2EAA1BBB1BFD010DC011
:100D7000AA1FBB1FEE1FFF1FA217B307E407F5074B
:100D800020F0A21BB30BE40BF50B661F771F881F27
:100D9000991F1A9469F760957095809590959B01BD
:100DA000AC01BD01CF010895EE0FFF1F0590F49136
:100DB000E02D099481E090E0F8940C94DF06F8941B
:020DC000FFCF63
:100DC200000000001B018400B2006801E300C100C2
:100DD200D5000D0A00416E616C6F6720706F7274EE
:100DE200203D20002C206176657261676520726566
:100DF20073756C74203D200054696D652074616BBD
:100E0200656E203D200053616D706C696E672066CF
:100E120072657175656E63793A20006E616E006964
:0C0E22006E66006F766600204B487A0078
:00000001FF
