:100000000C945D000C9485000C9485000C94850084
:100010000C9485000C9485000C9485000C9485004C
:100020000C9485000C9485000C9485000C9485003C
:100030000C9485000C9485000C9485000C9485002C
:100040000C94FF030C9485000C946F040C944904E9
:100050000C9485000C9485000C9485000C9485000C
:100060000C9485000C94850000000008000201003B
:100070000003040700000000000000000000000072
:10008000250028002B0000000000240027002A0083
:10009000040404040404040402020202020203032E
:1000A0000303030301020408102040800102040836
:1000B0001020010204081020A10411241FBECFEF5C
:1000C000D8E0DEBFCDBF11E0A0E0B1E0ECE7FCE09E
:1000D00002C005900D92AA35B107D9F722E0AAE532
:1000E000B1E001C01D92A831B207E1F710E0CDE503
:1000F000D0E004C02197FE010E943106CC35D10723
:10010000C9F70E94EB040C943C060C94000090E0AC
:10011000FC01EC55FF4F2491FC01E057FF4F849107
:10012000882399F090E0880F991FFC01EA57FF4F50
:10013000A591B491FC01E458FF4F859194918FB73C
:10014000F894EC91E22BEC938FBF089590E0FC01C2
:10015000E859FF4F2491FC01EC55FF4F3491FC010D
:10016000E057FF4FE491EE2309F43CC0222339F11C
:10017000233091F038F42130A9F0223001F584B514
:100180008F7D12C0273091F02830A1F02430B9F4CF
:10019000809180008F7D03C0809180008F77809355
:1001A00080000DC084B58F7784BD09C08091B000F8
:1001B0008F7703C08091B0008F7D8093B000F0E016
:1001C000EE0FFF1FE458FF4FA591B4919FB7F8942D
:1001D000611104C08C913095382302C0EC913E2B04
:1001E0003C939FBF08953FB7F89480915F01909131
:1001F0006001A0916101B091620126B5A89B05C084
:100200002F3F19F00196A11DB11D3FBFBA2FA92F95
:10021000982F8827820F911DA11DB11DBC01CD0112
:1002200042E0660F771F881F991F4A95D1F70895FE
:10023000CF92DF92EF92FF920F931F93CF93DF93B2
:100240006C017A018B01C0E0D0E0CE15DF0581F0B2
:10025000D8016D918D01D601ED91FC910190F08155
:10026000E02DC6010995892B11F02196EECF7E0174
:10027000C701DF91CF911F910F91FF90EF90DF9019
:10028000CF900895FC01538D448D252F30E0842FAD
:1002900090E0821B930B541710F0CF9608950197AE
:1002A0000895FC01918D828D981761F0828DDF0198
:1002B000A80FB11D5D968C91928D9F5F9F73928F59
:1002C00090E008958FEF9FEF0895FC01918D828D4E
:1002D000981731F0828DE80FF11D858D90E008951B
:1002E0008FEF9FEF0895FC01918D228D892F90E073
:1002F000805C9F4F821B91098F739927089583E635
:1003000091E00E94730121E0892B09F420E0822F03
:100310000895FC01848DDF01A80FB11DA35ABF4FC2
:100320002C91848D90E001968F739927848FA689F4
:10033000B7892C93A089B1898C91837080648C9348
:10034000938D848D981306C00288F389E02D8081F7
:100350008F7D80830895EF92FF920F931F93CF9329
:10036000DF93EC0181E0888F9B8D8C8D981305C005
:10037000E889F989808185FD26C0F62E0B8D10E075
:100380000F5F1F4F0F731127E02E8C8DE8120CC0EA
:100390000FB607FCFACFE889F989808185FFF5CF90
:1003A000CE010E948901F1CF8B8DFE01E80FF11D76
:1003B000E35AFF4FF0829FB7F8940B8FEA89FB89CD
:1003C000808180620AC09FB7F894EE89FF896083BC
:1003D000E889F98980818370806480839FBF81E090
:1003E00090E0DF91CF911F910F91FF90EF900895D2
:1003F000CF93DF93EC01888D8823C9F0EA89FB89CC
:10040000808185FD05C0A889B9898C9186FD0FC0C2
:100410000FB607FCF5CF808185FFF2CFA889B98997
:100420008C9185FFEDCFCE010E948901E7CFDF914E
:10043000CF91089580E090E0892B29F00E947F0100
:1004400081110C9400000895CF93DF93EC0160E0DC
:100450008E810E94A60061E08E810E94A60060E06D
:100460008E810E94A6008BE891E00197F1F7DF9161
:10047000CF910895CF92DF92EF92FF920F931F9347
:10048000CF93DF936C017C0187E0E80EF11CC0E0A4
:10049000D0E0062F10E0B8010C2E02C075956795CC
:1004A0000A94E2F76170F70181917F010E94A60032
:1004B0002196C430D10579F7C601DF91CF911F9104
:1004C0000F91FF90EF90DF90CF900C942402CF9289
:1004D000DF92EF92FF920F931F93CF93DF93EC0184
:1004E000F62E642F8C810E94A6008D818F3F19F01B
:1004F00060E00E94A6008F850F2D10E084FF25C0CC
:100500006E0187E0C80ED11CE12CF12CB8010E2C35
:1005100002C0759567950A94E2F76170F6018191C2
:100520006F010E94A600FFEFEF1AFF0A88E0E816AD
:10053000F10461F7CE01DF91CF911F910F91FF90F0
:10054000EF90DF90CF900C942402B80184E0759571
:1005500067958A95E1F7CE010E943A026F2DCE0190
:10056000DF91CF911F910F91FF90EF90DF90CF908F
:100570000C943A0240E0682F80E092E00C9467020D
:10058000CF93DF93823028F090910F029860909380
:100590000F02809313021092140280E480931502DC
:1005A00080E18093160280E5809317028091040217
:1005B0000E948700809105028F3F11F00E94870002
:1005C000809106020E948700C0E0D2E09E01205088
:1005D000324080910F0284FD03C084E090E002C0AD
:1005E00088E090E021962817390724F48E810E9434
:1005F0008700ECCF8BE39DE00197F1F760E08091FD
:1006000004020E94A60060E0809106020E94A600FB
:10061000809105028F3F19F060E00E94A600809152
:100620000F0284FD20C063E080E092E00E943A0265
:10063000CBE4D6E4CE010197F1F763E080E092E0ED
:100640000E943A022197F1F763E080E092E00E9475
:100650003A0283E592E00197F1F762E080E092E0F0
:100660000E943A0215C080620E94BA028BE496E4AE
:100670000197F1F780910F0280620E94BA0283E530
:1006800092E00197F1F780910F0280620E94BA0216
:1006900080910F0280620E94BA0284E0809310026F
:1006A0008CE00E94BA0281E00E94BA028BE39FE1D3
:1006B0000197F1F782E08093110286E0DF91CF91FC
:1006C0000C94BA0241E00E94670281E090E0089534
:1006D000089580E090E008950E9437066115710545
:1006E00079F0FB0101900020E9F73197AF01461B3B
:1006F000570BDC01ED91FC910280F381E02D099410
:1007000080E090E008958F929F92AF92BF92EF9217
:10071000FF920F931F93CF93DF93CDB7DEB7A197CF
:100720000FB6F894DEBF0FBECDBF7C01FA01CB013E
:1007300019A2223008F42AE08E010F5D1F4F822E8D
:10074000912CA12CB12CBF01A50194010E940F0690
:10075000F901CA01015011096A3014F4605D01C049
:10076000695CD8016C93232B242B252B61F7B801EE
:10077000C7010E946E03A1960FB6F894DEBF0FBEAC
:10078000CDBFDF91CF911F910F91FF90EF90BF9060
:10079000AF909F908F900895CF92DF92EF92FF924B
:1007A0000F931F93CF93DF93EC016A017B01E881E4
:1007B000F9810190F081E02D6DE209958C014427CB
:1007C0005527BA014C195D096E097F092AE0CE014F
:1007D0000E948303800F911FDF91CF911F910F9192
:1007E000FF90EF90DF90CF900895AB01770F660BED
:1007F000770B77FD0C94CC032AE00C9483031F92B3
:100800000F920FB60F9211242F933F938F939F93C4
:10081000AF93BF9380915B0190915C01A0915D01CA
:10082000B0915E0130915A0123E0230F2D3720F45F
:100830000196A11DB11D05C026E8230F0296A11D3A
:10084000B11D20935A0180935B0190935C01A093AA
:100850005D01B0935E0180915F0190916001A09174
:100860006101B09162010196A11DB11D80935F01EC
:1008700090936001A0936101B0936201BF91AF9129
:100880009F918F913F912F910F900FBE0F901F90CE
:1008900018951F920F920FB60F9211242F933F932A
:1008A0004F935F936F937F938F939F93AF93BF9378
:1008B000EF93FF9383E691E00E948901FF91EF910E
:1008C000BF91AF919F918F917F916F915F914F9168
:1008D0003F912F910F900FBE0F901F9018951F9270
:1008E0000F920FB60F9211242F938F939F93EF9334
:1008F000FF93E0917301F09174018081E09179019F
:10090000F0917A0182FD12C0908180917C018F5F0D
:100910008F7320917D01821751F0E0917C01F0E00E
:10092000ED59FE4F958F80937C0101C08081FF912E
:10093000EF919F918F912F910F900FBE0F901F906D
:100940001895E3E6F1E01382128288EE93E0A0E0CE
:10095000B0E084839583A683B78384E091E091839C
:10096000808385EC90E09587848784EC90E097877E
:10097000868780EC90E0918B808B81EC90E0938B6C
:10098000828B82EC90E0958B848B86EC90E0978B49
:10099000868B118E128E138E148EE0E0F2E013829D
:1009A000128286E191E0918380838CE084838FEFD3
:1009B00085838BE0868385E0878384E0808783E07E
:1009C000818782E0828713861486158616861786AD
:1009D00081E00C94C002789484B5826084BD84B5B3
:1009E000816084BD85B5826085BD85B5816085BD2A
:1009F00080916E00816080936E00109281008091E2
:100A00008100826080938100809181008160809369
:100A10008100809180008160809380008091B1008E
:100A200084608093B1008091B00081608093B000B9
:100A300080917A00846080937A0080917A0082604D
:100A400080937A0080917A00816080937A0080910F
:100A50007A00806880937A001092C100E09173015F
:100A6000F091740182E08083E0916F01F091700158
:100A70001082E0917101F09172018FEC80831092ED
:100A80007B01E0917701F091780186E08083E0912D
:100A90007501F0917601808180618083E09175011C
:100AA000F0917601808188608083E0917501F091FA
:100AB0007601808180688083E0917501F0917601F4
:100AC00080818F7D808382E00E94C002809111022C
:100AD0008E7F8093110284600E94BA026EE171E001
:100AE00080E092E00E946E03E0911302E23010F485
:100AF000E15001C0E1E0F0E0E050FE4F8489806801
:100B00000E94BA026CE271E080E092E00E946E0303
:100B10000E94F3006B017C01812C912C5401E09127
:100B20001302E23010F4E15001C0E1E0F0E0E050E7
:100B3000FE4F8489885F80680E94BA022AE0B5016E
:100B4000A40180E092E00E9483032FEF821A920AB0
:100B5000A20AB20A8AE088169104A104B104F9F647
:100B60000E94F300EB01CC19DD09E1E08091130252
:100B70008111E0E0E195F0E0E050FE4F848980686B
:100B80000E94BA0264E371E080E092E00E946E038A
:100B9000BE0180E092E00E94F50360E471E083E62C
:100BA00091E00E946E03BE0183E691E00E94F5038E
:100BB0006EE471E083E691E00E946E0366E571E009
:100BC00083E691E00E946E030E94F3004B015C01FA
:100BD00088EEC82E83E0D82EE12CF12C0E94F30081
:100BE000DC01CB0188199909AA09BB09883E934009
:100BF000A105B10598F321E0C21AD108E108F10876
:100C000088EE880E83E0981EA11CB11CC114D1048B
:100C1000E104F10419F780E090E00E943C06A1E2B3
:100C20001A2EAA1BBB1BFD010DC0AA1FBB1FEE1F66
:100C3000FF1FA217B307E407F50720F0A21BB30BB1
:100C4000E40BF50B661F771F881F991F1A9469F72D
:100C500060957095809590959B01AC01BD01CF0189
:100C60000895EE0FFF1F0590F491E02D099481E0A7
:0C0C700090E0F8940C943C06F894FFCF40
:100C7C0000000000AB0118014201F80173015101A1
:100C8C0065010000000062031801690368036865D0
:100C9C006C6C6F2C20776F726C642100566F6C74C7
:100CAC00733A2000746F74616C2074696D653A003E
:100CBC0031302077726974657320696E2000206D65
:0A0CCC006963726F73000D0A0000E7
:107E0000112484B714BE81FFF0D085E080938100F7
:107E100082E08093C00088E18093C10086E0809377
:107E2000C20080E18093C4008EE0C9D0259A86E02C
:107E300020E33CEF91E0309385002093840096BBD3
:107E4000B09BFECF1D9AA8958150A9F7CC24DD24C4
:107E500088248394B5E0AB2EA1E19A2EF3E0BF2EE7
:107E6000A2D0813461F49FD0082FAFD0023811F036
:107E7000013811F484E001C083E08DD089C08234E0
:107E800011F484E103C0853419F485E0A6D080C0E4
:107E9000853579F488D0E82EFF2485D0082F10E0AE
:107EA000102F00270E291F29000F111F8ED06801E7
:107EB0006FC0863521F484E090D080E0DECF843638
:107EC00009F040C070D06FD0082F6DD080E0C81688
:107ED00080E7D80618F4F601B7BEE895C0E0D1E017
:107EE00062D089930C17E1F7F0E0CF16F0E7DF06D8
:107EF00018F0F601B7BEE89568D007B600FCFDCFD4
:107F0000A601A0E0B1E02C9130E011968C91119780
:107F100090E0982F8827822B932B1296FA010C0160
:107F200087BEE89511244E5F5F4FF1E0A038BF0790
:107F300051F7F601A7BEE89507B600FCFDCF97BE46
:107F4000E89526C08437B1F42ED02DD0F82E2BD052
:107F50003CD0F601EF2C8F010F5F1F4F84911BD097
:107F6000EA94F801C1F70894C11CD11CFA94CF0C13
:107F7000D11C0EC0853739F428D08EE10CD085E9AC
:107F80000AD08FE07ACF813511F488E018D01DD067
:107F900080E101D065CF982F8091C00085FFFCCF94
:107FA0009093C60008958091C00087FFFCCF809118
:107FB000C00084FD01C0A8958091C6000895E0E648
:107FC000F0E098E1908380830895EDDF803219F02E
:107FD00088E0F5DFFFCF84E1DECF1F93182FE3DFCA
:107FE0001150E9F7F2DF1F91089580E0E8DFEE27F6
:047FF000FF270994CA
:027FFE00040479
:0400000300007E007B
:00000001FF
