:100000000C9435000C945D000C945D000C945D0024
:100010000C945D000C945D000C945D000C945D00EC
:100020000C945D000C945D000C945D000C945D00DC
:100030000C945D000C945D000C945D000C945D00CC
:100040000C941E020C945D000C94E4010C94A90124
:100050000C945D000C9468020C945D000C945D009F
:100060000C945D000C945D00810211241FBECFEF43
:10007000D8E0DEBFCDBF11E0A0E0B1E0E4E2FEE0F9
:1000800002C005900D92A833B107D9F721E0A8E38B
:10009000B1E001C01D92A53FB207E1F710E0C5E352
:1000A000D0E004C02197FE010E940A07C433D107A3
:1000B000C9F70E94BC020C94A2040C9400000F9398
:1000C0001F93CF93DF93FC01A685B7858D01005C5C
:1000D0001F4FE8018881998101968F739927AD019F
:1000E0004E5B5F4FEA012881398128173907D1F328
:1000F000E80128813981A20FB31F6C93A685B785CB
:10010000A05CBF4F11969C938E93A689B7892C91C2
:1001100081E090E0078C02C0880F991F0A94E2F7F3
:10012000822B8C9381E081A30488F589E02D808166
:100130008064808381E090E0DF91CF911F910F91E7
:100140000895FC0181A1882329F0A489B5898C91A7
:1001500086FFFBCF11A20895FC01A485B585FD01A2
:10016000E05CFF4F20813181329680819181281798
:10017000390779F080819181A80FB91F8C91208176
:1001800031812F5F3F4F2F7333273183208390E0DE
:1001900008958FEF9FEF0895DC011C96ED91FC917F
:1001A0001D97DF01A05CBF4F2D913C9111971296D6
:1001B0008D919C9111972817390739F08D919C9159
:1001C000E80FF91F808190E008958FEF9FEF089569
:1001D000FC0124853585F901E05CFF4F8081918128
:1001E000329620813181821B930B8F73992708955A
:1001F00083ED91E00C94E8000895CF92DF92EF92A6
:10020000FF920F931F93CF93DF936C01EB017B0160
:10021000E40EF51E00E010E0CE15DF0561F06991F7
:10022000D601ED91FC910190F081E02DC601099578
:10023000080F191FF1CFC801DF91CF911F910F91C6
:10024000FF90EF90DF90CF9008953FB7F8948091A2
:100250003D0190913E01A0913F01B091400126B532
:10026000A89B05C02F3F19F00196A11DB11D3FBFEE
:10027000BA2FA92F982F8827820F911DA11DB11D7C
:10028000BC01CD0142E0660F771F881F991F4A9578
:10029000D1F70895009769F0FC0101900020E9F77B
:1002A0003197AF01481B590BBC0183ED91E00C94D1
:1002B000FD0080E090E008958F929F92AF92BF92F0
:1002C000EF92FF920F931F93CF93DF93CDB7DEB7DB
:1002D000A1970FB6F894DEBF0FBECDBF162F042F27
:1002E00019A2423008F40AE07E0121E2E20EF11C7C
:1002F000802E912CA12CB12C612FA50194010E947C
:10030000E806029F1019112481E0E81AF1081A305A
:1003100014F4105D01C0195CF7011083122F732FC4
:10032000CA01232B242B252B39F7C7010E944A0130
:10033000A1960FB6F894DEBF0FBECDBFDF91CF916F
:100340001F910F91FF90EF90BF90AF909F908F9073
:1003500008951F920F920FB60F9211242F933F937F
:100360008F939F93EF93FF9320918B0130918C019A
:1003700080918D0190918E012817390731F4809179
:10038000C1008F7D8093C10014C0E0918D01F09178
:100390008E01E55BFE4F208180918D0190918E0151
:1003A00001968F73992790938E0180938D012093EE
:1003B000C600FF91EF919F918F913F912F910F90E8
:1003C0000FBE0F901F9018951F920F920FB60F92AD
:1003D00011242F934F935F938F939F93EF93FF93EA
:1003E0008091C00082FD1CC02091C6008091CF0189
:1003F0009091D0014091D1015091D20101968F731B
:1004000099274817590771F0E091CF01F091D00179
:10041000E157FE4F20839093D0018093CF0102C01B
:100420008091C600FF91EF919F918F915F914F91C5
:100430002F910F900FBE0F901F9018951F920F9243
:100440000FB60F9211242F933F938F939F93AF93E7
:10045000BF938091390190913A01A0913B01B091F5
:100460003C013091380123E0230F2D3720F4019611
:10047000A11DB11D05C026E8230F0296A11DB11DC7
:10048000209338018093390190933A01A0933B0166
:10049000B0933C0180913D0190913E01A0913F01BC
:1004A000B09140010196A11DB11D80933D01909333
:1004B0003E01A0933F01B0934001BF91AF919F9146
:1004C0008F913F912F910F900FBE0F901F90189515
:1004D0001F920F920FB60F9211248F939F938091CA
:1004E00079008091490190914A01019690934A01C7
:1004F000809349019F918F910F900FBE0F901F9095
:100500001895E3EDF1E01382128288EE93E0A0E00B
:10051000B0E084839583A683B78384E091E09183E0
:1005200080838FE891E0958784878BE491E09787BB
:10053000868785EC90E0918B808B84EC90E0938BA8
:10054000828B80EC90E0958B848B81EC90E0978B94
:10055000868B82EC90E0918F808F86EC90E0938F79
:10056000828F84E0848F83E0858F87E0868F85E0AB
:10057000878F81E080A30895789484B5826084BDDC
:1005800084B5816084BD85B5826085BD85B5816097
:1005900085BD80916E00816080936E001092810015
:1005A00080918100826080938100809181008160D0
:1005B0008093810080918000816080938000809191
:1005C000B10084608093B1008091B000816080931D
:1005D000B00080917A00846080937A0080917A00E4
:1005E000826080937A0080917A00816080937A00A3
:1005F00080917A00806880937A001092C100E09127
:10060000E701F091E80181E090E09C010090F301A6
:1006100002C0220F331F0A94E2F72083E091E30126
:10062000F091E4011082E091E501F091E6012FECF8
:1006300020831092F401E091E901F091EA014081F8
:100640009C010090EF0102C0220F331F0A94E2F7D1
:10065000242B2083E091E901F091EA0140819C0183
:100660000090F00102C0220F331F0A94E2F7242BFE
:100670002083E091E901F091EA0140819C01009022
:10068000F10102C0220F331F0A94E2F7242B2083CA
:10069000E091E901F091EA0120810090F20102C0AD
:1006A000880F991F0A94E2F7809582238083109225
:1006B0007A0010927B0080917C0080937C00809176
:1006C0007C00806480937C0080917C0080628093B9
:1006D0007C0080917A00846080937A0080917A0017
:1006E000806280937A0080917A00886080937A009B
:1006F00080917A00806880937A0080917A0080648B
:1007000080937A008091490190914A01883E9340FC
:100710000CF415C10E942501C0904501D0904601FE
:10072000E0904701F0904801DC01CB018C199D0954
:10073000AE09BF098093410190934201A093430108
:10074000B093440180E191E00E944A01609141012F
:100750007091420180914301909144010E94C10532
:100760009B01AC0160E074E284E799E40E94170504
:100770006B017C014B015C019B01AC010E94E30613
:10078000882319F085E291E01AC026013701E89428
:1007900077F82FEF3FEF4FE75FE7C301B2010E9409
:1007A000E30681110FC02FEF3FEF4FE75FE7C30173
:1007B000B2010E94120518162CF489E291E00E9401
:1007C0004A0183C02FEF3FEF4FE75FE4C701B60157
:1007D0000E94710618161CF48DE291E0F0CF2FEF05
:1007E0003FEF4FE75FECC701B6010E94120587FD9E
:1007F000F3CF20E030E0A901C701B6010E94120545
:1008000087FF0BC06DE283ED91E00E945F0046011F
:100810005701B7FAB094B7F8B0942AE037ED43EA3D
:100820005BE3C501B4010E94A6046B017C010E9438
:1008300090054B015C010E94BF059B01AC01C70103
:10084000B6010E94A5046B017C014AE0C501B40118
:100850000E945C0181E391E00E944A01C3E0C15023
:10086000A1F120E030E040E251E4C701B6010E946E
:1008700076064B015C010E9489056B01770FEE083B
:10088000FF08F7FE10C06DE283ED91E00E945F006B
:1008900088279927DC018C199D09AE09BF094AE018
:1008A000BC01CD0103C04AE0C701B6010E945C0152
:1008B000C701B6010E94C1059B01AC01C501B4018D
:1008C0000E94A5046B017C01CACF83E391E00E94E2
:1008D0004A016DE083ED91E00E945F006AE083EDE4
:1008E00091E00E945F000E9425017B0180ED882E2F
:1008F00087E0982EA12CB12C0E9425016E197F094A
:10090000683E7340C8F321E0821A9108A108B1083B
:1009100088E1E81A8CEFF80A81149104A104B1046B
:1009200059F70E9425016093450170934601809319
:1009300047019093480110924A01109249010E9488
:10094000F800E0CEF8940C9410075058BB27AA2763
:100950000E94BD040C9437060E94290638F00E94BC
:10096000300620F039F49F3F19F426F40C94260643
:100970000EF4E095E7FB0C942006E92F0E94480650
:1009800058F3BA17620773078407950720F079F4C4
:10099000A6F50C946A060EF4E0950B2EBA2FA02D46
:1009A0000B01B90190010C01CA01A0011124FF271C
:1009B000591B99F0593F50F4503E68F11A16F04017
:1009C000A22F232F342F4427585FF3CF4695379516
:1009D0002795A795F0405395C9F77EF41F16BA0BDB
:1009E000620B730B840BBAF09150A1F0FF0FBB1F89
:1009F000661F771F881FC2F70EC0BA0F621F731FD2
:100A0000841F48F4879577956795B795F7959E3F2E
:100A100008F0B0CF9395880F08F09927EE0F9795BF
:100A2000879508950E94FC0508F481E008950E94CE
:100A30002B050C9437060E94300658F00E942906B8
:100A400040F029F45F3F29F00C94200651110C94DA
:100A50006B060C9426060E94480668F39923B1F3AE
:100A6000552391F3951B550BBB27AA2762177307D4
:100A7000840738F09F5F5F4F220F331F441FAA1F68
:100A8000A9F335D00E2E3AF0E0E832D09150504024
:100A9000E695001CCAF72BD0FE2F29D0660F771FD2
:100AA000881FBB1F261737074807AB07B0E809F0B8
:100AB000BB0B802DBF01FF2793585F4F3AF09E3F3D
:100AC000510578F00C9420060C946B065F3FE4F31C
:100AD000983ED4F3869577956795B795F7959F5F80
:100AE000C9F7880F911D9695879597F90895E1E0CC
:100AF000660F771F881FBB1F621773078407BA072B
:100B000020F0621B730B840BBA0BEE1F88F7E09585
:100B100008950E9490056894B1110C946B06089595
:100B20000E94500688F09F5798F0B92F9927B75127
:100B3000B0F0E1F0660F771F881F991F1AF0BA9581
:100B4000C9F714C0B13091F00E946A06B1E008956F
:100B50000C946A06672F782F8827B85F39F0B93F61
:100B6000CCF3869577956795B395D9F73EF4909534
:100B70008095709561957F4F8F4F9F4F0895E894B2
:100B800009C097FB3EF490958095709561957F4FD5
:100B90008F4F9F4F9923A9F0F92F96E9BB27939583
:100BA000F695879577956795B795F111F8CFFAF493
:100BB000BB0F11F460FF1BC06F5F7F4F8F4F9F4FC4
:100BC00016C0882311F096E911C0772321F09EE822
:100BD000872F762F05C0662371F096E8862F70E088
:100BE00060E02AF09A95660F771F881FDAF7880F62
:100BF0009695879597F90895990F0008550FAA0BB8
:100C0000E0E8FEEF16161706E807F907C0F012161F
:100C10001306E407F50798F0621B730B840B950B22
:100C200039F40A2661F0232B242B252B21F4089577
:100C30000A2609F4A140A6958FEF811D811D089514
:100C400097F99F6780E870E060E008959FEF80EC7F
:100C5000089500240A941616170618060906089522
:100C600000240A9412161306140605060895092E88
:100C70000394000C11F4882352F0BB0F40F4BF2BF7
:100C800011F460FF04C06F5F7F4F8F4F9F4F089537
:100C900057FD9058440F551F59F05F3F71F047952D
:100CA000880F97FB991F61F09F3F79F08795089512
:100CB000121613061406551FF2CF4695F1DF08C031
:100CC000161617061806991FF1CF8695710561054E
:100CD00008940895E894BB2766277727CB0197F9F6
:100CE00008950E94FC0508F48FEF08950E9489067C
:100CF0000C9437060E94290638F00E94300620F036
:100D0000952311F00C9420060C94260611240C94C3
:100D10006B060E94480670F3959FC1F3950F50E053
:100D2000551F629FF001729FBB27F00DB11D639F9D
:100D3000AA27F00DB11DAA1F649F6627B00DA11D43
:100D4000661F829F2227B00DA11D621F739FB00DE9
:100D5000A11D621F839FA00D611D221F749F332759
:100D6000A00D611D231F849F600D211D822F762FF2
:100D70006A2F11249F5750409AF0F1F088234AF0CF
:100D8000EE0FFF1FBB1F661F771F881F915050403B
:100D9000A9F79E3F510580F00C9420060C946B0639
:100DA0005F3FE4F3983ED4F3869577956795B795C2
:100DB000F795E7959F5FC1F7FE2B880F911D9695DC
:100DC000879597F908950E94FC05880B990B089563
:100DD000A1E21A2EAA1BBB1BFD010DC0AA1FBB1F3F
:100DE000EE1FFF1FA217B307E407F50720F0A21BB1
:100DF000B30BE40BF50B661F771F881F991F1A941E
:100E000069F760957095809590959B01AC01BD0147
:100E1000CF010895EE0FFF1F0590F491E02D099486
:040E2000F894FFCF74
:100E2400000000005F00FD00E800AC00CC00A10061
:100E340053616D706C696E67206672657175656E5D
:100E440063793A20006E616E00696E66006F7666A3
:080E5400002E00204B487A003B
:00000001FF
