:100000000C9435000C945D000C945D000C945D0024
:100010000C945D000C945D000C945D000C945D00EC
:100020000C945D000C945D000C945D000C945D00DC
:100030000C945D000C945D000C945D000C945D00CC
:100040000C94A8010C945D000C9418020C94F2011D
:100050000C945D000C944A020C945D000C945D00BD
:100060000C945D000C945D007D0311241FBECFEF46
:10007000D8E0DEBFCDBF11E0A0E0B1E0E2EBF7E0F9
:1000800002C005900D92A631B107D9F721E0A6E193
:10009000B1E001C01D92A03CB207E1F710E0C5E35A
:1000A000D0E004C02197FE010E94CC03C433D107E5
:1000B000C9F70E9462020C94D7030C9400003FB76A
:1000C000F89480911F0190912001A0912101B0919D
:1000D000220126B5A89B05C02F3F19F00196A11D4E
:1000E000B11D3FBFBA2FA92F982F8827820F911DCE
:1000F000A11DB11DBC01CD0142E0660F771F881F15
:10010000991F4A95D1F70895CF92DF92EF92FF920F
:100110000F931F93CF93DF936C017A018B01C0E0A3
:10012000D0E0CE15DF0581F0D8016D918D01D601AB
:10013000ED91FC910190F081E02DC6010995892B8C
:1001400011F02196EECF7E01C701DF91CF911F9173
:100150000F91FF90EF90DF90CF900895089580E089
:1001600090E00895FC01538D448D252F30E0842FBD
:1001700090E0821B930B541710F0CF9608950197CF
:100180000895FC01918D828D981761F0828DDF01B9
:10019000A80FB11D5D968C91928D9F5F9F73928F7A
:1001A00090E008958FEF9FEF0895FC01918D828D6F
:1001B000981731F0828DE80FF11D858D90E008953C
:1001C0008FEF9FEF0895FC01918D228D892F90E094
:1001D000805C9F4F821B91098F739927089583E25A
:1001E00091E00E94E30021E0892B09F420E0822FB6
:1001F0000895FC01848DDF01A80FB11DA35ABF4FE4
:100200002C91848D90E001968F739927848FA68915
:10021000B7892C93A089B1898C91837080648C9369
:10022000938D848D981306C00288F389E02D808118
:100230008F7D80830895EF92FF920F931F93CF934A
:10024000DF93EC0181E0888F9B8D8C8D981305C026
:10025000E889F989808185FD26C0F62E0B8D10E096
:100260000F5F1F4F0F731127E02E8C8DE8120CC00B
:100270000FB607FCFACFE889F989808185FFF5CFB1
:10028000CE010E94F900F1CF8B8DFE01E80FF11D28
:10029000E35AFF4FF0829FB7F8940B8FEA89FB89EE
:1002A000808180620AC09FB7F894EE89FF896083DD
:1002B000E889F98980818370806480839FBF81E0B1
:1002C00090E0DF91CF911F910F91FF90EF900895F3
:1002D000CF93DF93EC01888D8823C9F0EA89FB89ED
:1002E000808185FD05C0A889B9898C9186FD0FC0E4
:1002F0000FB607FCF5CF808185FFF2CFA889B989B9
:100300008C9185FFEDCFCE010E94F900E7CFDF9100
:10031000CF91089580E090E0892B29F00E94EF00B2
:1003200081110C9400000895009769F0FC01019080
:100330000020E9F73197AF01481B590BBC0183E25C
:1003400091E00C94840080E090E008950E94D20334
:100350001F920F920FB60F9211242F933F938F93FA
:100360009F93AF93BF9380911B0190911C01A0912B
:100370001D01B0911E0130911A0123E0230F2D378A
:1003800020F40196A11DB11D05C026E8230F029699
:10039000A11DB11D20931A0180931B0190931C0194
:1003A000A0931D01B0931E0180911F019091200127
:1003B000A0912101B09122010196A11DB11D809350
:1003C0001F0190932001A0932101B0932201BF91BE
:1003D000AF919F918F913F912F910F900FBE0F90F2
:1003E0001F9018951F920F920FB60F9211242F9302
:1003F0003F934F935F936F937F938F939F93AF93AD
:10040000BF93EF93FF9383E291E00E94F900FF9185
:10041000EF91BF91AF919F918F917F916F915F917C
:100420004F913F912F910F900FBE0F901F901895F5
:100430001F920F920FB60F9211242F938F939F93B9
:10044000EF93FF93E0913301F09134018081E091CB
:100450003901F0913A0182FD12C0908180913C01F6
:100460008F5F8F7320913D01821751F0E0913C0125
:10047000F0E0ED5DFE4F958F80933C0101C08081DF
:10048000FF91EF919F918F912F910F900FBE0F9041
:100490001F9018951F920F920FB60F9211248F93F1
:1004A0009F938091790090E09093170180931601BB
:1004B00081E0809319019F918F910F900FBE0F9053
:1004C0001F901895CF93DF93CDB7DEB7A1970FB6E6
:1004D000F894DEBF0FBECDBF789484B5826084BD32
:1004E00084B5816084BD85B5826085BD85B5816038
:1004F00085BD80916E00816080936E0010928100B6
:100500008091810082608093810080918100816070
:100510008093810080918000816080938000809131
:10052000B10084608093B1008091B00081608093BD
:10053000B00080917A00846080937A0080917A0084
:10054000826080937A0080917A00816080937A0043
:1005500080917A00806880937A001092C100E091C7
:100560003301F091340182E08083E0912F01F0911A
:1005700030011082E0913101F09132018FEC8083E3
:1005800010923B01E0913701F091380186E08083C1
:10059000E0913501F0913601808180618083E091A6
:1005A0003501F0913601808188608083E0913501CA
:1005B000F0913601808180688083E0913501F0916F
:1005C000360180818F7D808380E880937A008091DE
:1005D0007A00816080937A0080E680937C009AE0C4
:1005E000892E912CA12CB12C11E080911901882326
:1005F00009F475C010921801C0901601D09017012F
:100600000D2C000CEE08FF08F7FE20C06DE283E21F
:1006100091E00E941B0122273327A9012C193D09D3
:100620004E095F0919A2CE0181967C01CA01B90168
:10063000A50194010E94AA03605DF70162937F0106
:10064000211531054105510589F715C0A70196010E
:1006500019A2CE0181967C01CA01B901A5019401BC
:100660000E94AA03605DF70162937F0121153105A5
:100670004105510589F7C7010E94940142E050E00D
:1006800062E171E083E291E00E9484000E945F00D9
:100690002B013C0184EFC82EDD24D394E12CF12CF6
:1006A0000E945F00DC01CB0184199509A609B709F6
:1006B000883E9340A105B10598F3F1E0CF1AD10827
:1006C000E108F10828EE420E23E0521E611C711C65
:1006D000C114D104E104F10419F7109219018091B9
:1006E0001801811107C01093180180917A00886465
:1006F00080937A000E948A0178CFE3E2F1E01382CE
:10070000128288EE93E0A0E0B0E084839583A68314
:10071000B78384E091E09183808385EC90E09587B6
:10072000848784EC90E09787868780EC90E0918BBB
:10073000808B81EC90E0938B828B82EC90E0958BA8
:10074000848B86EC90E0978B868B118E128E138EA5
:10075000148E0895A1E21A2EAA1BBB1BFD010DC029
:10076000AA1FBB1FEE1FFF1FA217B307E407F50761
:1007700020F0A21BB30BE40BF50B661F771F881F3D
:10078000991F1A9469F760957095809590959B01D3
:10079000AC01BD01CF010895EE0FFF1F0590F4914C
:1007A000E02D099481E090E0F8940C94D703F8943C
:0207B000FFCF79
:1007B200000000001B018400B2006801E300C100D8
:0607C200D5000D0A000045
:107E0000112484B714BE81FFF0D085E080938100F7
:107E100082E08093C00088E18093C10086E0809377
:107E2000C20080E18093C4008EE0C9D0259A86E02C
:107E300020E33CEF91E0309385002093840096BBD3
:107E4000B09BFECF1D9AA8958150A9F7CC24DD24C4
:107E500088248394B5E0AB2EA1E19A2EF3E0BF2EE7
:107E6000A2D0813461F49FD0082FAFD0023811F036
:107E7000013811F484E001C083E08DD089C08234E0
:107E800011F484E103C0853419F485E0A6D080C0E4
:107E9000853579F488D0E82EFF2485D0082F10E0AE
:107EA000102F00270E291F29000F111F8ED06801E7
:107EB0006FC0863521F484E090D080E0DECF843638
:107EC00009F040C070D06FD0082F6DD080E0C81688
:107ED00080E7D80618F4F601B7BEE895C0E0D1E017
:107EE00062D089930C17E1F7F0E0CF16F0E7DF06D8
:107EF00018F0F601B7BEE89568D007B600FCFDCFD4
:107F0000A601A0E0B1E02C9130E011968C91119780
:107F100090E0982F8827822B932B1296FA010C0160
:107F200087BEE89511244E5F5F4FF1E0A038BF0790
:107F300051F7F601A7BEE89507B600FCFDCF97BE46
:107F4000E89526C08437B1F42ED02DD0F82E2BD052
:107F50003CD0F601EF2C8F010F5F1F4F84911BD097
:107F6000EA94F801C1F70894C11CD11CFA94CF0C13
:107F7000D11C0EC0853739F428D08EE10CD085E9AC
:107F80000AD08FE07ACF813511F488E018D01DD067
:107F900080E101D065CF982F8091C00085FFFCCF94
:107FA0009093C60008958091C00087FFFCCF809118
:107FB000C00084FD01C0A8958091C6000895E0E648
:107FC000F0E098E1908380830895EDDF803219F02E
:107FD00088E0F5DFFFCF84E1DECF1F93182FE3DFCA
:107FE0001150E9F7F2DF1F91089580E0E8DFEE27F6
:047FF000FF270994CA
:027FFE00040479
:0400000300007E007B
:00000001FF
