:100000000C9452000C9464000C9464000C946400F2
:100010000C9464000C9464000C9464000C946400D0
:100020000C9464000C9464000C9464000C946400C0
:100030000C9464000C94B0000C9464000C94640064
:100040000C9466000C9464000C9464000C9464009E
:100050000C9464000C9464000C9464000C94640090
:100060000C9464000C94640000000000250028003B
:100070002B0000000000240027002A0004040404D0
:100080000404040402020202020203030303030342
:10009000010204081020408001020408102001021F
:1000A0000408102011241FBECFEFD8E0DEBFCDBF63
:1000B00021E0A0E0B1E001C01D92AC30B207E1F751
:1000C0000E94D5000C947D010C9400001F920F92A9
:1000D0000FB60F9211242F933F938F939F93AF935B
:1000E000BF938091080190910901A0910A01B091FC
:1000F0000B013091070123E0230F2D3720F40196E7
:10010000A11DB11D05C026E8230F0296A11DB11D3A
:10011000209307018093080190930901A0930A019D
:10012000B0930B018091030190910401A09105010E
:10013000B09106010196A11DB11D8093030190931A
:100140000401A0930501B0930601BF91AF919F9167
:100150008F913F912F910F900FBE0F901F90189588
:100160001F920F920FB60F9211242F933F934F932C
:100170005F936F937F938F939F93AF93BF93EF930F
:10018000FF93E0E0F0E00995FF91EF91BF91AF910F
:100190009F918F917F916F915F914F913F912F919F
:1001A0000F900FBE0F901F901895789484B58260C1
:1001B00084BD84B5816084BD85B5826085BD85B50B
:1001C000816085BD80916E00816080936E00109289
:1001D0008100809181008260809381008091810004
:1001E0008160809381008091800081608093800095
:1001F0008091B10084608093B1008091B0008160F3
:100200008093B00080917A00846080937A0080911E
:100210007A00826080937A0080917A008160809376
:100220007A0080917A00806880937A001092C100F1
:1002300080E1809381001092800081E08093020130
:1002400080E991E0909301018093000190938700F1
:100250008093860081E180938100E9E9F0E02491B8
:10026000E5E8F0E08491882399F090E0880F991FE9
:10027000FC01EE58FF4FA591B491FC01E859FF4FE6
:10028000859194918FB7F894EC91E22BEC938FBF0A
:1002900080918000806880938000209100013091DF
:1002A0000101A2E3B0E00E946E01DC01CB012AE073
:1002B000B695A795979587952A95D1F7909389003C
:1002C0008093880080910201806180938100C0E06A
:1002D000D0E02097F1F30E940000FBCFA29FB00175
:1002E000B39FC001A39F700D811D1124911DB29F6A
:0E02F000700D811D1124911D0895F894FFCF0B
:00000001FF
