:100000000C9462000C948A000C948A000C948A0070
:100010000C948A000C948A000C948A000C948A0038
:100020000C948A000C948A000C948A000C948A0028
:100030000C948A000C948A000C948A000C948A0018
:100040000C94C7010C948A000C9437020C94110292
:100050000C948A000C948A000C948A000C948A00F8
:100060000C948A000C948A000000000024002700F1
:100070002A000000000023002600290000000000E4
:10008000250028002B0004040404040404040202D4
:100090000202020203030303030301020408102007
:1000A0004080010204081020010204081020000012
:1000B0000008000201000003040700000000000027
:1000C00000008D0311241FBECFEFD8E0DEBFCDBFEF
:1000D00011E0A0E0B1E0EEE8F7E002C005900D927B
:1000E000A831B107D9F721E0A8E1B1E001C01D9224
:1000F000A13CB207E1F710E0C2E6D0E004C02197CE
:10010000FE010E94BA03C136D107C9F70E946902F5
:100110000C94C5030C940000833081F028F48130E6
:1001200099F08230A1F008958730A9F08830B9F0B5
:100130008430D1F4809180008F7D03C08091800055
:100140008F7780938000089584B58F7702C084B53F
:100150008F7D84BD08958091B0008F7703C080911A
:10016000B0008F7D8093B0000895CF92DF92EF9220
:10017000FF920F931F93CF93DF936C017A018B0152
:10018000C0E0D0E0CE15DF0581F0D8016D918D0182
:10019000D601ED91FC910190F081E02DC601099509
:1001A000892B11F02196EECF7E01C701DF91CF910F
:1001B0001F910F91FF90EF90DF90CF9008950895D9
:1001C00080E090E00895FC01538D448D252F30E0B0
:1001D000842F90E0821B930B541710F0CF96089554
:1001E00001970895FC01918D828D981761F0828DA1
:1001F000DF01A80FB11D5D968C91928D9F5F9F735B
:10020000928F90E008958FEF9FEF0895FC01918DFC
:10021000828D981731F0828DE80FF11D858D90E069
:1002200008958FEF9FEF0895FC01918D228D892F06
:1002300090E0805C9F4F821B91098F7399270895EE
:1002400088E191E00E94140121E0892B09F420E06B
:10025000822F0895FC01848DDF01A80FB11DA35AE0
:10026000BF4F2C91848D90E001968F739927848FD6
:10027000A689B7892C93A089B1898C9183708064F9
:100280008C93938D848D981306C00288F389E02D9A
:1002900080818F7D80830895EF92FF920F931F934B
:1002A000CF93DF93EC0181E0888F9B8D8C8D981329
:1002B00005C0E889F989808185FD26C0F62E0B8D61
:1002C00010E00F5F1F4F0F731127E02E8C8DE81287
:1002D0000CC00FB607FCFACFE889F989808185FF49
:1002E000F5CFCE010E942A01F1CF8B8DFE01E80FE0
:1002F000F11DE35AFF4FF0829FB7F8940B8FEA8904
:10030000FB89808180620AC09FB7F894EE89FF89DB
:100310006083E889F98980818370806480839FBFCE
:1003200081E090E0DF91CF911F910F91FF90EF90CE
:100330000895CF93DF93EC01888D8823C9F0EA8973
:10034000FB89808185FD05C0A889B9898C9186FDCE
:100350000FC00FB607FCF5CF808185FFF2CFA889CB
:10036000B9898C9185FFEDCFCE010E942A01E7CF9C
:10037000DF91CF91089580E090E0892B29F00E94D1
:10038000200181110C94000008950E94C0031F9267
:100390000F920FB60F9211242F933F938F939F9339
:1003A000AF93BF938091BD019091BE01A091BF0119
:1003B000B091C0013091BC0123E0230F2D3720F410
:1003C0000196A11DB11D05C026E8230F0296A11DAF
:1003D000B11D2093BC018093BD019093BE01A093F9
:1003E000BF01B093C0018091B8019091B901A09173
:1003F000BA01B091BB010196A11DB11D8093B80156
:100400009093B901A093BA01B093BB01BF91AF9192
:100410009F918F913F912F910F900FBE0F901F9042
:1004200018951F920F920FB60F9211242F933F939E
:100430004F935F936F937F938F939F93AF93BF93EC
:10044000EF93FF9388E191E00E942A01FF91EF91E1
:10045000BF91AF919F918F917F916F915F914F91DC
:100460003F912F910F900FBE0F901F9018951F92E4
:100470000F920FB60F9211242F938F939F93EF93A8
:10048000FF93E0912801F09129018081E0912E01F4
:10049000F0912F0182FD12C09081809131018F5F18
:1004A0008F7320913201821751F0E0913101F0E019
:1004B000E85EFE4F958F8093310101C08081FF91EE
:1004C000EF919F918F912F910F900FBE0F901F90E2
:1004D0001895789484B5826084BD84B5816084BDAC
:1004E00085B5826085BD85B5816085BD80916E00D2
:1004F000816080936E001092810080918100826003
:10050000809381008091810081608093810080913F
:1005100080008160809380008091B100846080932E
:10052000B1008091B00081608093B00080917A002A
:10053000846080937A0080917A00826080937A0050
:1005400080917A00816080937A0080917A0080683F
:1005500080937A001092C1006CE9E62E60E0F62EDE
:10056000F701249178E8C72E70E0D72EF601849128
:100570008823C1F090E0880F991FFC01E859FF4FD4
:10058000A591B491FC01E458FF4FC591D4913FB7B8
:10059000F8949C91822F809598239C93988189232D
:1005A00088833FBFC7EAD0E0FE01249103E910E051
:1005B000F8018491882399F090E0880F991FFC013D
:1005C000E859FF4FA591B491FC01E458FF4F859184
:1005D00094919FB7F8948C91822B8C939FBFE0915C
:1005E0002801F091290182E08083E0912401F091BB
:1005F00025011082E0912601F09127018FEC808384
:1006000010923001E0912C01F0912D0186E0808361
:10061000E0912A01F0912B01808180618083E0913B
:100620002A01F0912B01808188608083E0912A016A
:10063000F0912B01808180688083E0912A01F09104
:100640002B0180818F7D808320EBA22E20E0B22EB3
:100650003BEB832E30E0932EF5018491F7017490EB
:10066000F60164906620A1F081110E948C00E62DB5
:10067000F0E0EE0FFF1FEE58FF4FA591B4918C9163
:10068000782231E020E009F430E0832F922F02C07D
:1006900080E090E02091B6013091B701281739072A
:1006A00031F021E0009709F020E02093B50190930C
:1006B000B7018093B6018091B501882359F142E0DA
:1006C00050E062E171E088E191E00E94B50042E013
:1006D00050E065E171E088E191E00E94B500F4012D
:1006E0008491FE017490F8016490662089F0811174
:1006F0000E948C00E62DF0E0EE0FFF1FE458FF4F44
:10070000A591B4919FB7F8948C91782A7C929FBF61
:100710001092B5010E94BB019FCFE8E1F1E0138286
:10072000128288EE93E0A0E0B0E084839583A683F4
:10073000B78384E091E09183808385EC90E0958796
:10074000848784EC90E09787868780EC90E0918B9B
:10075000808B81EC90E0938B828B82EC90E0958B88
:10076000848B86EC90E0978B868B118E128E138E85
:10077000148E0895EE0FFF1F0590F491E02D09945B
:0E07800081E090E0F8940C94C503F894FFCF4C
:10078E00000000004C01B500E30099011401F200D5
:08079E0006012B2B000D0A00DF
:107E0000112484B714BE81FFF0D085E080938100F7
:107E100082E08093C00088E18093C10086E0809377
:107E2000C20080E18093C4008EE0C9D0259A86E02C
:107E300020E33CEF91E0309385002093840096BBD3
:107E4000B09BFECF1D9AA8958150A9F7CC24DD24C4
:107E500088248394B5E0AB2EA1E19A2EF3E0BF2EE7
:107E6000A2D0813461F49FD0082FAFD0023811F036
:107E7000013811F484E001C083E08DD089C08234E0
:107E800011F484E103C0853419F485E0A6D080C0E4
:107E9000853579F488D0E82EFF2485D0082F10E0AE
:107EA000102F00270E291F29000F111F8ED06801E7
:107EB0006FC0863521F484E090D080E0DECF843638
:107EC00009F040C070D06FD0082F6DD080E0C81688
:107ED00080E7D80618F4F601B7BEE895C0E0D1E017
:107EE00062D089930C17E1F7F0E0CF16F0E7DF06D8
:107EF00018F0F601B7BEE89568D007B600FCFDCFD4
:107F0000A601A0E0B1E02C9130E011968C91119780
:107F100090E0982F8827822B932B1296FA010C0160
:107F200087BEE89511244E5F5F4FF1E0A038BF0790
:107F300051F7F601A7BEE89507B600FCFDCF97BE46
:107F4000E89526C08437B1F42ED02DD0F82E2BD052
:107F50003CD0F601EF2C8F010F5F1F4F84911BD097
:107F6000EA94F801C1F70894C11CD11CFA94CF0C13
:107F7000D11C0EC0853739F428D08EE10CD085E9AC
:107F80000AD08FE07ACF813511F488E018D01DD067
:107F900080E101D065CF982F8091C00085FFFCCF94
:107FA0009093C60008958091C00087FFFCCF809118
:107FB000C00084FD01C0A8958091C6000895E0E648
:107FC000F0E098E1908380830895EDDF803219F02E
:107FD00088E0F5DFFFCF84E1DECF1F93182FE3DFCA
:107FE0001150E9F7F2DF1F91089580E0E8DFEE27F6
:047FF000FF270994CA
:027FFE00040479
:0400000300007E007B
:00000001FF
